:040000006F90A04815
:1000040000000000000000008A8B0000AA8B0000A2
:1000140000000000889400000000000000000000C0
:100024008894000088940000000000000000000094
:10003400024F0000000000009002000000000000D9
:10004400889400008894000088940000927C00004A
:100054008894000088940000E25200000A530000D3
:10006400325300005A530000825300008894000069
:10007400889400008894000088940000889400000C
:100084008894000088940000E484000088940000B0
:10009400889400008894000088940000AA5300000B
:1000A40088940000889400008894000088940000DC
:1000B40088940000889400008894000088940000CC
:1000C40088940000889400008894000088940000BC
:1000D40088940000525900006E5900008A590000AB
:1000E400889400008894000088940000889400009C
:1000F400889400008894000088940000889400008C
:100104000000000088940000889400008894000097
:10011400A6590000C2590000889400008894000089
:10012400889400008894000088940000889400005B
:10013400889400008894000088940000889400004B
:10014400889400008894000088940000889400003B
:10015400889400008894000088940000889400002B
:10016400889400008894000088940000889400001B
:10017400889400008894000088940000889400000B
:1001840088940000889400008894000088940000FB
:1001940088940000889400008894000088940000EB
:1001A400000000000000000000000000000000004B
:0C01B4000000000000000000000000003F
:1001C00097020120938202E4938202E0739002344A
:1001D00003210500224573100530B1A819712320B1
:1001E000250006C006C216CAF322003093F2820030
:1001F000638402009302000816C412C81ACC1ECEF3
:1002000022D026D22AD42ED632D836DA3ADC3EDEB6
:10021000C2C0C6C2CAC4CEC6D2C8D6CADACCDECE26
:10022000E2D0E6D2EAD4EED6F2D8F6DAFADCFEDE96
:1002300003A1050009A002457310153492403785CB
:10024000000013050580732005302245732005301A
:100250004242D2426243F243025492542255B25572
:100260004256D2566257F257064896482649B64932
:10027000464AD64A664BF64B065C965C265DB65DF2
:10028000465ED65E665FF65F09617300203000004F
:10029000197116CA9302000816C49302000273A0D3
:1002A000428006C212C81ACC1ECE22D026D22AD430
:1002B0002ED632D836DA3ADC3EDEC2C0C6C2CAC456
:1002C000CEC6D2C8D6CADACCDECEE2D0E6D2EAD4E6
:1002D000EED6F2D8F6DAFADCFEDE73110134EF0066
:1002E0007046EF107058EF00D0487311013413843A
:1002F000018C0329040063040902232004007325F0
:1003000010342AC01384818B044023A0240013845A
:10031000C18B044003A104000245731015349240C0
:10032000B78200009382028073A00230A24273A0C1
:1003300002304242D2426243F24302549254225566
:10034000B2554256D2566257F25706489648264949
:10035000B649464AD64A664BF64B065C965C265D25
:10036000B65D465ED65E665FF65F0961730020305B
:100370000000397101436EC619A0397141536AC832
:1003800066CA62CC5ECE19A0397101535AD056D2DA
:1003900052D44ED64AD826DA22DC06DE330161403A
:1003A000828241114AC026C222C406C68282B24D50
:1003B0004101024D924C224CB24B4101024B924AF8
:1003C000224AB2494101024992442244B2404101C9
:1003D00082803D432A876373C3029377F700BDEFA2
:1003E000ADE5937606FF3D8ABA960CC34CC30CC7A5
:1003F0004CC74107E36BD7FE11E28280B306C340CE
:100400008A069702000096966780A6002307B70029
:10041000A306B7002306B700A305B7002305B7005E
:10042000A304B7002304B700A303B7002303B70056
:10043000A302B7002302B700A301B7002301B7004E
:10044000A300B7002300B700828093F5F50F9396C1
:100450008500D58D93960501D58D61B793962700BC
:100460009702000096968682E78086FA9680C117EA
:100470001D8F3E96E374C3F8A5B703A581828280E1
:10048000EFF23FF2938781829843050798C3EF10FC
:1004900020623C49FD173CC989E77C453CC9EF1007
:1004A000E069EF10701F05B7634205029307803EB5
:1004B0003347F5023365F5023305F5021305753E42
:1004C0003345F5023307F7023A9582807D558280E5
:1004D00001458280014582800145828001458280FC
:1004E000EFF23FEC5164D16413040451938404523D
:1004F00063639400C9BD1C4011048297D5BFEFF21D
:100500005FEA5164D164130404529384C455636355
:10051000940055BD1C4011048297D5BFEFF27FE8CF
:10052000F93FEF80C07D45B5EFF2BFE7B7050000AA
:1005300037150100D14729479306004001469385AE
:10054000C55113050524EF100057EF106073A5BDCA
:10055000EFF23FE5EF103032EF40D012EF00905451
:10056000EF10B027EF10A021C137EF10B0270D2CEE
:10057000EF10C023014581BDEFF2BFE2D13F01453D
:1005800099B5EFF27FE0AA89EF10805219C1EF1000
:1005900000392545EF10200A4441130445006396B5
:1005A0008400EF10E050014919A81389C4FE4146A8
:1005B000CE854A85EF00D03B01E9EF10604F19C1AD
:1005C000EF1080374A85DDBB8440D1BF09E57D55FA
:1005D00082807D55CDBBEFF2DFDC2A842E85328907
:1005E000AE8445377DF522852686A545EF10400768
:1005F0000145231024032302040223110402D9BF5E
:10060000EFF23FDA1E3141112A84C18B9DE71C595C
:100610008DC32EC68297AA84B24501CD2A8637158E
:100620000100A28513058524EF0030412685410194
:1006300059BB1E3093E707011EB01E30A18B89C73E
:100640003E30E554A18BFDF35C5899CF228582970B
:10065000AA8415E13E3093E787003EB08347440209
:1006600085072302F402D9B785679387F7F0FD8DDC
:100670002EB08144C5B7E957E31AF5FAE1BF8347C5
:1006800045028DCBEFF2FFD1FD1793F7F70F230251
:10069000F5022A84014789EF1C5D89E70147231190
:1006A000040239A082972A8775D9E957E309F5FE34
:1006B0003A8511BB7D573A858280EFF29FCE034782
:1006C000450211E77D55EF00100E014521A05C5D4C
:1006D00099C38297CDB96955FDB7EFF29FCC034717
:1006E000450211E77D55EF00100C014521A03C416A
:1006F00099C38297C9B96955FDB77C4189C7EFF2A3
:100700005FCA8297C9B1695582800CD50145828044
:10071000EFF29FC793894188854A83A74188638602
:100720003705EF10501583A741882A8A638D370358
:1007300003A441885C401840130944FE5CC398C37D
:1007400040C000C0EF10A01D7C5499C34A85829719
:100750004A85EF104002631B55014A85EF00307651
:10076000EF10801D5285EF10D01189B9EF10C01C19
:100770005285EF1010114848EF00F0604A85EF00F5
:10078000707C61BFEFF2FFC11384C19D13090401A6
:100790001C4091C382971104E31C24FF953FEDB7E1
:1007A000EFF23FC037060000B715010093080002C2
:1007B0007D48930700201387C19E81461306467823
:1007C000938505281385C194EF10602B1385C19480
:1007D000EF10004BCDBEEFF2DFBC2A84FD541C406D
:1007E0006314F4000145C5B6EF10F0082A890840EB
:1007F00044CD1115EF1000444A85EF109008C5B79D
:10080000EFF23FBA41112A842E8532C62EC4EF1072
:1008100000383246A24519C68547630DF6000145EA
:10082000410155B658409387C5011CC398D15CC09F
:10083000C0CDF5B71C406388870083C6D50303C7C6
:10084000170263FAE600D4431387C50198C294D116
:10085000D8C3DCCDE9B79C43F9BFEFF29FB4411197
:10086000B2842E8689452A8436C6EF00705FB24670
:100870009307C4011CD05CCC46B014B801454101BB
:1008800099B6EFF27FB083A7018741112EC62A8463
:1008900091C38297EF10207E5E30AA8989CFFD1721
:1008A0005EB0EF10007E83A7C186014591CB228503
:1008B0008297014531A0B24791E7EF10807C7955CE
:1008C0004101EDBCEF10C01E232C05021038AA8593
:1008D000AA841305C4012D37B247635CF000138965
:1008E0004405700081454A85EF1080574A85EF1016
:1008F00040494E85EF10E078EF00106E885C45D5DA
:10090000C1B7EFF21FAA8145AD3F75BCEFF27FA9D9
:1009100083A781862A8491C38297EF10C075AA8429
:10092000484C9307C401630EF5001115EF10803099
:1009300005442685EF10E07419C0EF00F069014509
:1009400059B45E3085075EB00144E5B7EFF27FA58C
:10095000B2842E868D452A84EF0090509307C401FF
:100960001CD05CCCB707FF0085075CD023240402B1
:1009700004B8014589BCEFF2DFA22E84AA850D459B
:10098000EF00D05601CD9307C5011CD15CCDB70750
:10099000FF0085075CD12324050200B92DB4EFF2D6
:1009A000BF9E41112EC62A84EF108010AA84EF103A
:1009B000806C83A701872A8999C3228582971C545A
:1009C00023AC040263829702938AD403130BC401FD
:1009D000938944055D5A5E3085CBFD175EB004D423
:1009E00083C7D4032303F402834774028507A30358
:1009F000F4024A85EF10E06883A7C186014589CFDC
:100A000022858297014509A8B24791EBF9574A859B
:100A10009CDCEF100067795541016FF03F9A085454
:100A200003C7D4038347D5036376F7005686894509
:100A3000EF10E0271038A6855A85D933B247635A9C
:100A4000F000700081454E85EF1080414E85EF101B
:100A500040334A85EF10E062EF001058885C01C512
:100A6000E30B45F755BFEF1000612A8959B7EFF244
:100A7000BF9141112A84EF10A003AA84EF10A05F58
:100A800083A78186AA8999C3228582971C54638B88
:100A90009700FD574E859CDCEF10A05E7D5541010F
:100AA0006FF0DF91834774020149FD1793F7F70F49
:100AB000A303F402A9E30347640283C7D4036308D2
:100AC000F7001306640289452685EF10401E5C4C32
:100AD0001307C401638CE702138547FE08D483C75C
:100AE000170205492303F402834774028507A30311
:100AF000F402EF1020144E85EF10A0580145E300DA
:100B000009FA2AC6EF00504D324551BF5E3023240A
:100B10000402014985075EB0FD572303F402E1BFDB
:100B2000EFF23F88B2842E8691452A84EF0050333D
:100B30009307C40104B81CD05CCC232204020145F5
:100B40006FF07F88D1C5EFF23F844111AE842A84D3
:100B5000EF1060524C5083A78186C58D4CD02A89F6
:100B600099C322858297484C9309C40181446385C7
:100B7000A9048347C502032A050013F7170005C718
:100B800014555850758F639EE600918B99C71C557C
:100B900013C7F7FF5C50F98F5CD01115EF10800977
:100BA00085445285E9B713F7270065DF185554507F
:100BB000758F65DB18D5D1BF4A85EF10804C014594
:100BC00089C42AC6EF005041324541016FF00FFF42
:100BD0007D558280EFF24FFB411136C66388050CCC
:100BE0003A8AB289AE842A84EF00906C83A7018789
:100BF000232C05022A8999C322858297EF10A047EA
:100C000093F71900AA8AA1C35C50E58F63939704F8
:100C100063060A005C50E58F2320FA0093F949002F
:100C2000638709004C5093C4F4FFED8C44D0EF105F
:100C3000404583A7C18699C32285829703258903EE
:100C400041016FF0AFF793F7290081C75C50E58F42
:100C5000E1F3B24789E7F957232CF902C9BF2322F0
:100C60009904230439051038CA851305C401493E87
:100C7000B247635CF0009304490570008145268506
:100C8000EF10001E2685EF10C00F5685EF10603F55
:100C9000EF0090340325890345F5EF10C03DE308CC
:100CA0000AF8832749042320FA0051B77D5549BF2C
:100CB000EFF22FEF4111B2842E8695452A8436C675
:100CC0003AC4EF00F0192247B2469307C4011CD082
:100CD0005CCC9307040318B844D016B4231504025F
:100CE000232604025CD81CD8014541016FF0AFED0A
:100CF000EFF22FEB2A847105EFF0FFAD130504032B
:100D0000EFF07FAD2285EF00901B01456FF0AFEB58
:100D1000EFF2AFE641112A842E8A32C6EF00505915
:100D200083A78186AA8999C322858297EF10A03470
:100D30003A341E34AA8401496311F70CB247D5EF47
:100D4000EF102034755541016FF0AFE6B24723AC88
:100D5000090299E32685EDB71038CE855A85EFF064
:100D60003FAAB247635DF000EFF02FF12A897000CF
:100D700081455685EF10C00E5685EF108000268500
:100D8000EF102030EF00502503A589034DFDEF1033
:100D9000802EB247AA84CA8B635DF000EFF0EFEDBE
:100DA000B247B30B2541CA973385A7406345050475
:100DB0002AC65E893A341234E30AC7F85E345450C6
:100DC000939527008507AE96C20723A04601C183ED
:100DD00063FAC7025EB4484C05073AB4710463066F
:100DE00085021115EF0010652685EF108029EF00B0
:100DF000B01E014589BF02C66DBF130B0403938A61
:100E000049054DBF23160402F9B72685EF10602768
:100E1000CDB7EFF20FD90146E53D6FF0CFDAEFF233
:100E2000CFD541112A842E8A32C6EF00704883A79D
:100E30000187AA8999C322858297EF10C0233E3487
:100E4000AA846390070EB2470149639D070CEF1017
:100E50004023795541016FF0CFD5B24723AC090249
:100E600081EB2685EF10E021F95723ACF902D5B7C5
:100E70001038CE855A85EFF0BF98B247635DF00019
:100E8000EFF0AFDF2A89700081455685EF00507D75
:100E90005685EF00106F2685EF10A01EEF00D013CF
:100EA00003A5890345F9EF10001DB247AA84CA8B38
:100EB000635DF000EFF06FDCB247B30B2541CA97DA
:100EC0003385A740634D05042AC65E893A3451D75D
:100ED0007E34545013962700B29694428507C20779
:100EE0002320DA001634C1837EB463E4D7002317CD
:100EF000040208587D173AB4930704036309F50206
:100F00001115EF0030532685EF10A01783A7C18677
:100F100099C322858297EF00300C014525BF02C698
:100F20006DB70149130BC401938A490545B726855E
:100F3000EF10201583A7C1860145E38D07F02285B8
:100F40008297E1BFEFF2EFC54111EF10C012138796
:100F500041831C23850793F7F70F1CA383A7C18246
:100F600081C72AC682973245EF10A01141016FF068
:100F70008FC5EFF20FC34111EF10E00F13874183CC
:100F80001C23FD1793F7F70F1CA383A7018381C7C9
:100F90002AC682973245EF10C00E41016FF0AFC2F2
:100FA00003C541838280EFF2CFBF2A84D53F09C5B4
:100FB00023AC81826FF02FC1EF00902F75D900DD37
:100FC000D5BF0D47AA876376C7009377350091C7D1
:100FD000AA873E966397C706828093F7F50F13970B
:100FE0008700D98F139707015D8FB308C500AA87C3
:100FF000BD463388F84063EB060393574600C1565D
:10100000B386D7029207AA970D4836963383C70056
:10101000BE86B308D3406362180313572600F15607
:10102000B306D7020A07BA97369665B798C3D8C3EE
:1010300098C7C10723AEE7FE6DBF910623AEE6FE5B
:10104000C9BF8507A38FB7FE71B73D47AA876377EE
:10105000C700B367B5008D8BA5CBAA870147631581
:10106000C708828003A80700C1074107232807FF9C
:1010700003A847FF232A07FF03A887FF232C07FFA6
:1010800003A8C7FF232E07FF3388F840E3EC06FDD3
:101090009356460013974600B307E500BA954157AB
:1010A000B386E602014736968D463308E64063C3B1
:1010B00006031357260093162700B697B695F156E8
:1010C0003307D7023A9659BFAE872A87B388C5003F
:1010D000BD465DBF3388E500832808003388E700FC
:1010E000110723201801D1B7B386E5000388060055
:1010F000B386E70005072380060195B763F2A504D0
:10110000B386C500637ED5029345F6FF8147FD1780
:101110006393F50082803387F60003080700338766
:10112000C7002A9723000701DDB73387F500830640
:1011300007003307F500850714A3E318F6FE828045
:101140008147E5BF0DC6AA8785050387F5FF85079B
:101150009306F6FFA38FE7FE09EB3E9685076393A0
:10116000C7008280A38F07FED5BF3686F1FE82803E
:1011700001476314E600814739A8B307E500838679
:101180000700B387E5009C23B387F640E207E187B9
:1011900099E30507F9FE3E858280AA870387070049
:1011A00001E73385A74082808507CDBF397136D6E8
:1011B000741006CE3AD83EDA42DC46DE36C6EF2060
:1011C0004029F2402161828003A5C1838280EFF231
:1011D0004F9D03A9C183EFF0CFBA11CD1384C18312
:1011E000AA84084019C1EFF08FC993053004268501
:1011F000EFF00FC104C04A856FF0EF9C82800DCDE7
:10120000EFF22F9A1384C1830440411189E4FD3722
:1012100041016FF04F9B03D924022AC6936709044A
:10122000BEB0A53F3246AA8681452685EFF0EFCABB
:101230001C4023912703E9BF8280397126CA2ED230
:1012400032D436D62A8654109305F0071385C1BED2
:101250003EDA36C606CE22CC3AD842DC46DEEF2055
:10126000401FAA8603A5C18309E91385C1BE79374A
:10127000F2406244D2442161828026862631138462
:10128000C18393E704043EB19307F00763F4D700EA
:101290009306F0071386C1BE8145EFF00FC41C40D2
:1012A000A6B3F9B7EFF2EF8F3715010013058538B4
:1012B00069373715010013054539413737170100E4
:1012C000371501001307873B8D4605468D451305ED
:1012D000453CA537371501001305453EB93F6FF072
:1012E0008F8E31C5C5661377F50F9386862809C79B
:1012F000BA96882205058280C167938707F0E98F37
:1013000081CB21851377F50F369708232505828039
:10131000B707FF00E98F81CB41859377F50FB6972B
:101320008823450582806181369508216505828084
:1013300003A741845C41BA976305F502B62395E2A1
:1013400083A60184638FF6009386818490426313A1
:10135000F60088C2D44354C1DC43B306E540BA97D3
:1013600094C71045B307C700630FF500B62381EE9D
:10137000938681848C426393A5009CC25441D4C35C
:101380005C413E9710C78280EFF2AF8183A5018553
:1013900037150100130505414D3583A5C185371566
:1013A000010013054542513D83A5C1843715010055
:1013B0001305854359356FF00F81EFE29FFE13F758
:1013C000C5FFE1462E8663F1E60693073500F19BE3
:1013D000930687FE63EAF6041D8F130687FE23A893
:1013E000C1848966511713844184938606EAD8C361
:1013F00094C323A407001CC0BA9723A0F184C96634
:10140000938606EAB715010094C3D8C398C78146EE
:1014100005469385054D1385C1C6EFF00FC41840EE
:1014200023A4E1846FE03FFAAA8537150100130574
:10143000854D2135C5BFEFE2DFF639C503A701852C
:101440001304350071981389018581446366870E02
:10145000B1476373F4003144FD551385C1C6EFF005
:101460004FC283A7818483A54184832809002685F0
:101470003386B740B3868840138881846368D6007A
:101480001385C1C6EFF08FC881447DA0B384C50029
:10149000BA2003AE440061E73307CE40930F47FF05
:1014A00063EF8F0A138FC185938EC1841303840168
:1014B00083260F0083A30E001389C1859382C18404
:1014C00063EF6F061307C4003297896E3383E5001C
:1014D000938E0EEA2322C3012324C3002320D301C9
:1014E0000546D8C0B2A003264300B1086304160124
:1014F0002E9618C61387C60022972320E90063F4AE
:10150000E30023A0E2000967130707EA9AA0639AA1
:10151000970083A601840147B22305EE19C3232057
:10152000F8001385C1C6EFF06FBE83A78185B104B3
:1015300081C7A2852685829726856FE0DFE805466C
:101540003697B2A02320EF00E3FFE3FA23A0EE00DA
:101550005DBFE385D7FCDC430547AE9775BF728658
:1015600031BFEFE21FE43306B5024111328532C6C6
:10157000D9352A8409C532468145EFF09FA42285DA
:1015800041016FE05FE45DC5EFE21FE083A74185A5
:101590002A8491C3829783A7418413894184636914
:1015A000F40883A701846375F408FD551385C1C64B
:1015B000EFF02FAD835764FF930944FF81CB0357AE
:1015C00044FF8967938707EA6303F7023715010031
:1015D00013054548EFF07FC6835644FF035664FF6A
:1015E00037150100CE851305054AEFF01FC5896741
:1015F000938707EA231AF4FE938781849843231B79
:1016000004FE63F4E90023A037011387C1851C435E
:10161000832684FF4E85958F83260900B386D940A3
:10162000B6971CC3EFF0DFD01385C1C6EFF00FAE45
:101630006FE0DFD88280B70700209386070001475C
:101640009387070029468C426396A500131547002F
:101650003E9582800507C106E317C7FE01458280DB
:10166000EFE29FD22A842E85AE89328AE9372A8911
:101670007D2483244900930749006390F4046D2C72
:1016800093E909F8230834014146D2852285EFF019
:101690007FAB83A7018699C322858297EF00B01D97
:1016A00003274900930744015CC358C82322F9006B
:1016B00004CCEF00101D6FE07FD084407DBFEFE2CF
:1016C0005FCE83A741862A8491C3829723080400B2
:1016D000EF00701A5448184C93074401D8C214C341
:1016E0001CCC5CC8EF00F0196FE0FFCDEFE2DFC962
:1016F0002E89AA898937AA844845EFF0DFD32A8446
:101700001DCDD0448145EFF0DF8B414623083401E5
:10171000A3080400CA852285EFF0DFA283A7018613
:1017200099C322858297EF001015D8409307440192
:1017300091045CC358C89CC004CCEF00901422856F
:101740006FE0DFC7EFE2FFC583A741862A8491C31C
:10175000829723080400EF0010125448184C930796
:101760004401D8C214C31CCC5CC8EF009011228580
:10177000193D6FE05FC5030505017D8182802390DF
:101780000188938741C913870710DCC39CC3A10755
:10179000E39DE7FE7D47238AE18623AC018623A6ED
:1017A000018893874188DCC39CC38280EFE27FBFBE
:1017B00003A5C188EFF0FFB27D159317350013859F
:1017C00041C93E950841130745FE210523ACE1863A
:1017D000EFE01F9F6FE03FBFEFE21FBBEF00B009DC
:1017E00083970188AA89C9E303A5C188EFF07FAF79
:1017F0007D1513173500938741C9BA9780439387A6
:1018000081878443130944FE6380240723A02701B2
:1018100083A7C187238AA18681C7CA852685829727
:101820005C481307300294236399E600184463F67A
:10183000E700144CBE9663FEE60237150100CA8528
:1018400013054551EFF07F9FEF204027EF00B002D6
:1018500001E183C74183138544029305840093F714
:10186000F70F85E7EFE09F974E85EF0090016FE05F
:10187000FFB493870702E3EEE7FC37150100CA8542
:1018800013050553EFF07F9BE9B7EF00E07FE9BF59
:10189000EFE23FB12A84EF00007E8347C403930642
:1018A000C401C19B93E71700230EF4028347D403BE
:1018B00013973700938741C9BA97D84314C318D0F8
:1018C000D4C35CCC9387C18894433840558F98C368
:1018D000EF00207B6FE03FAFEFE2BFAC2A84EF0068
:1018E00080791850544C9307C401D8C214C35CCCFF
:1018F0001CD08347D40313973700938741C9BA9705
:101900009843631AF7001387C1883C40144393C778
:10191000F7FFF58F1CC3EF00C0766FE0DFAAEFE2A0
:101920005FA8EF004075938701889A2305079AA363
:10193000EF0020756FE03FA9EFE2BFA6EF00A073B4
:10194000138701881E23FD17C207C1871EA3634D9D
:10195000F00023100700EF00C07283A7818799C3AE
:10196000EFF09FE76FE03FA6EF00A071E5BFEFE269
:101970005FA303A48187EF000070AA842285A93F9A
:101980009147230EF40213054405E12E2285EFF062
:101990009FDE8547631FF5008327840899EB228526
:1019A000EFF0FFD12685EF00C06DEFF0FFE26FE0B2
:1019B0009FA183A641881307C40123A2E188D8C24E
:1019C0009387418854CC1CD0F1BFEFE29F9D2A84BD
:1019D0007105411108D048CC0CD450D414D83A86A3
:1019E00058D89305300236853EC642C4EFF06FDD0D
:1019F000585810584C5408547117B72600003A969E
:101A00009386E696EF00E061B24722483726000051
:101A100048D0230FF402A30EF402232004048147CC
:101A20002326040523280405232C0402230E040284
:101A300023240408232604080147A2861306A6A52A
:101A4000A28513054405CD2483A7018999C3228566
:101A50008297014541016FE01F97EFE29F94504D3F
:101A60001451795718DD54C21307C50190C218D11B
:101A700058CDEFF0FFE1EFF03FD66FE0DF94EFE2FB
:101A80005F924111B2842E8685452A84368946C0EC
:101A90003AC63EC442C2EFF0BFBC0248924722475A
:101AA000B2464A86A68522850D3741016FE0BF9177
:101AB00003A581878280EFE23F8D41112E89AA859F
:101AC000054532C6B684BA893E8AEFF03FC22A8401
:101AD00011C92685EFF03F96324609E92285EFF0DD
:101AE0007FC60144228541016FE05F8DAA8652883E
:101AF000CE872687CA852285EFF03FEDE5B7EFE276
:101B00005F8A8347C5032A84BD8B99C3EFF0DFDC6E
:101B100013054405B9249147230EF402A92B83A68B
:101B200041881307C40123A2E188D8C29387418862
:101B300054CC1CD0B92301456FE0FF88EFE27F86CB
:101B40001D2B83A781870546AA8603C7C7033D8B44
:101B5000631CC702D04F98536308E60258C210C3F3
:101B600003C6D7039386C7010E06138741C994D3D2
:101B70003297504314C290D354C3D8CF1923EFF0F7
:101B8000BFC501456FE03F843685E529DDBF83474A
:101B9000C5030547BD8B639FE702EFE29F802A8460
:101BA000D9298347C403AA842285C19B93E72700D0
:101BB000230EF402EFF05FD2130544058D2C268529
:101BC000C92183A78189014581C722858297014563
:101BD0006FE06FFF7D558280EFE2AFFC41112AC6B6
:101BE000592903A481872A892285553793044405FE
:101BF000700081452685AD24268561224A855121C4
:101C0000EFF09FBD185CF9576314F700232C040212
:101C1000014541016FE02FFBEFE2AFF8EFF0DFFB92
:101C20006FE06FFAEFE2EFF7EFE01F88EFF0DFFA17
:101C30006FE06FF98347C5030947BD8B6390E704E5
:101C4000EFE22FF62A840529544C18509307C4015B
:101C5000AA84D8C214C31CD05CCC13054405C12A85
:101C6000268505212285EFF0BFC283A74189014562
:101C700081C72285829701456FE0EFF47D55828010
:101C8000EFE22FF28346E50305473317D70038C14B
:101C90000947A30ED502230EE502EFF0BFF983A793
:101CA000818799C3EFF05FB301456FE0CFF1EFE2B9
:101CB000AFED0549638E250589476386F500B1C5FB
:101CC00001456FE0AFEF2A84B28975268344C403CF
:101CD0002A8ABD88639224032285EFF0FFBF83C761
:101CE00009002285B394F400A30EF40224C0EFF09F
:101CF0003FBA52857926E9B783C709003319F9003D
:101D0000A30EF40223202405EDB7EFF07FF755BFB3
:101D1000EFF0FFDE7DB7544D18519307C501D8C2CF
:101D200014C31CD15CCD8280EFE2AFE74111B284D5
:101D30002E86A9452A8436C63AC43EC2EFF05F9289
:101D40009247B2462247F99B1CB89307C40144D07E
:101D500014D42328040258D41CD05CCC41016FE079
:101D60008FE6EFE20FE42A843926AA842285EFF079
:101D70009FFA268539262285EFF07F9401456FE092
:101D80008FE4EFE20FE22A84FD24AA842285EFF09B
:101D90009FF81C382685F99B1CB8E52483A7C186CB
:101DA00099C322858297EFE04FED5C543E9508D8A9
:101DB000D9241C38918BA5E39387018B03A8470096
:101DC000370600801346E6FF98436319F8049386AC
:101DD000C1899042050690C29306C40154C358CCF1
:101DE00094C31CD01C3893E717001CB8592C1C381E
:101DF000918B99CF938741D983C7C7030547BD8B83
:101E00006388E700138541D9EFF0DFE2EFF0DF9C54
:101E100001456FE04FDB9387018A4DB7544B0C5857
:101E20006385B6008D8EE374D6FABA8771BF1C390C
:101E3000858B8DC7EFE2EFD683A781862A8491C375
:101E40008297152CAA842285EFF0FFEC2685152CAD
:101E50001C380145F99B1CB86FE0EFD67D55828098
:101E600085476381F50263C5B70085C1014582805E
:101E70008947638FF5008D47E39AF5FE1C3993E798
:101E8000270009A85C551CC2D5B71C425CD5F9BF18
:101E90001C39F59B1CB9D9BFEFE22FCEEFE0EFDD87
:101EA0002A8CD12AB70900802A8A9384018B93C98E
:101EB000E9FF8D4B8040631694005285D9226FE074
:101EC0004FCF4848130944FE3305AC40E3E7A9FE71
:101ED00083A7818A99C34A8582974A85EFF0BFE339
:101EE0001C4448448297EFE04FD983A7C18A2A8CCB
:101EF00099C34A858297834754FF13F7E70FA30AD4
:101F0000E4FE8D8BE39877FB4A85EFF09FE75DB7A2
:101F1000EFE2AFC6EFE06FD6B70900802A8A93C917
:101F2000E9FFEFF0DF9F03A4018A9384018A8D4BC0
:101F300063169400EFF05FA06FE0AFC74848130945
:101F400044FE3305AA40E3E7A9FE83A7818A99C32B
:101F50004A8582974A85032C0400EFF0DFDBEFF01F
:101F6000BF9D1C4448448297EFE02FD183A7C18ACC
:101F70002A8A99C34A858297EFF07F9A834754FF54
:101F800013F73700F99BA30AF4FE631577014A851E
:101F9000EFF03FDF628469BFEFE20FBF37090080D7
:101FA0009384018AFD591349E9FF9C40638597009A
:101FB000C04B631B3401EFF0BFAFEFF05FBDEFF03C
:101FC000BF81EFF0FFF4D5B7EFE02FCB3305A4408E
:101FD000E369A9FEEFF05FC4EDB79387018BDCC323
:101FE0009CC38280EFE2EFBB9387018A3726000013
:101FF000B7150100A9481148138741E2814613062D
:1020000086F99385C556DCC39CC3138541D99307D4
:102010000040EFF0DFA6138541D9EFF07FC66FE0F7
:102020008FBA1106719A2A8837C7ADDE130506F8F4
:10203000AA871307F7EE631EF600A1679387078848
:102040002322D6F82324B6FA232006F92324F6F80F
:10205000828098C39107C5B737F700E01C43B706E5
:102060000080D58F1CC3828037F700E01C438607B1
:1020700085831CC382802165130505807315053097
:102080008280731005308280EFE2AFB11387018C3C
:1020900018439387018C19E323ACA18A23AEB18A3C
:1020A000054798C3EFF05FFB6FE0EFB1EFE26FAF72
:1020B00041113AC63EC4EFF02F91A247324719E5CD
:1020C0003A85EFF0AF9341016FE0EFAF26312A84FC
:1020D0003A8693E6040436B18145BE86EFE0EFDF31
:1020E00026B0D5B7EFE2EFAB892AB7270000B715C6
:1020F0000100138741229387C70A054693854557F8
:10210000138541225CCFED2B01456FE0CFABEFE2B1
:10211000CFA62A892E8BB28BB6893A8AEFE05FE888
:102120004DE193874125984321CBC05B39C0C567FA
:10213000931A29009387C757BE9AB71C0100130D45
:10214000CAFF832784FE63E327050328C4FF130C1B
:1021500044FD63150802832744FEB3E7FB0095EBBB
:1021600003A50A0029E14E87D287032804FF814690
:1021700035A04E85EFF0AF886FE0AFA3D2874E87D2
:10218000DE865A86CA856285029871F5004055F848
:10219000E5B7032804FFD2874E87DE865A86CA85B4
:1021A00062850298E5B7EFE05FFFAA844DDD1385F5
:1021B000CC59EFE09FFE26953387A900B307AD40C9
:1021C0006DB7D2874E87DE865A86CA850145EFF005
:1021D000FFED5DB7EFE2EF9C93844125D84011CF2E
:1021E00013844125EFE0DFDB19E9EFF07F8C01C9B3
:1021F000FD5513858400EFE08FFA6FE0CF9CEFF080
:102200009FE7232EA40AD5BFEFE2AF99938441251F
:10221000D84009CF13844125EFE09FD811E9EFF0B2
:102220003F8919C513858400EFE07F846FE0AF9983
:102230000325C40BEFF0FFE4D5BFEFE28F961384C4
:1022400041251C4099EFB71501000546938585612E
:1022500013058400EFE08FEF85475CC0232A04025A
:102260001CC001456FE02F96B2870D8D9306F007D5
:102270000387070001E73385C74082803388A500C4
:10228000E3EB06FF85058507A38FE5FED5B701477C
:102290002948A548B3F7050313061700B306C50080
:1022A00093870703A38FF6FEB3D7050363EDB8004A
:1022B000238006008147B306E500B305F74063E7D6
:1022C000B700328582803287BE85E9B7B305F50055
:1022D0008388060003880500850723801501238075
:1022E0000601FD16D9BFEFE24F8937490100AA84E4
:1022F000130509BEAE8CBE8B23A2018C328CB68A2C
:102300003A8BEFE09FE9C5678A0C9387C757E6973A
:1023100003AA070023A4A18C138D418C9389818C7F
:1023200063070A0203240D00371601001306C6597D
:10233000B38584002285EFF03FF32A94B3858400AF
:1023400022855286EFF05FF22A9423208D00032528
:102350000D001307B005B387A40098A305053384C7
:10236000A400EFE08F91AA852285EFF05FF283272A
:102370000D001307D0053E95269518B123010500E1
:102380003385F400EFE07FE103240D0037460100C0
:10239000130606112A94B38584002285EFF0DFEC42
:1023A000C5659385055AAE9C03A60C002A94B38597
:1023B00084002285EFF05FEB2A94B3858400628667
:1023C0002285EFF07FEA2A9437160100B385840056
:1023D0001306465E2285EFF03FE9229513040008BC
:1023E0002320AD00B305A440DE865A862695EF1063
:1023F000400683270D00AA976364F4006354050028
:102400009307000883A609002320FD0013875600C8
:10241000BA97130700086377F7009307B007958F03
:102420002320FD00638E0A0003240D00130609BE5D
:10243000B38584002285EFF03FE322952320AD0091
:1024400063000A0203240D00371601001306865E9E
:10245000B38584002285EFF03FE122952320AD0073
:1024600003250D00AA94238004006FD09FF4EFD2BF
:10247000DFF0138441251C40A1C7BA8A368AB2898D
:102480002E89AA84EFE0DFB1130B840319C1130B6B
:10249000040C1384C18CEFF0FFD3832B0400854719
:1024A0006392FB02D6855285EFE03FD963987901AC
:1024B00037450100130505BEEFE03FD8EFF0DFD44C
:1024C0006FD03FEF1CC05287D687CE864A86A6853E
:1024D0005A85EFF05FE12A87DA860146CA852685AC
:1024E000EFF0FFC223200400D1BF79713AD0181059
:1024F00006CE3ED242D446D63AC6EFF05FF7F2405F
:1025000045618280EFD2FFE601112E8B328CB689B5
:102510002AC6EFE09FC82AC4EFE09FA89387412511
:102520001384070C19E113848703EFF0BFCAE28A12
:10253000014A01498144B71D010063E73401EFF00E
:10254000BFCC05616FD0BFE6639A04109307B00556
:10255000B30B24012380FB00130A1900EFD0FFF115
:10256000229AAA855285EFF09FD24A952295930729
:10257000D0051CB1930700023CA1A30105005E85B4
:10258000EFE0BFC12A9937160100B30524011306F5
:10259000065F2A8A4A85EFF03FCD32462A99B30575
:1025A00024014A85EFF05FCC2A9937160100B30564
:1025B00024014A851306465EEFF01FCB2A99B38BA0
:1025C0006401371601001387FBFFA6861306865F9A
:1025D0009305000833052401EFE05FBD130D0008EB
:1025E0006364AD00330D25010149B30CA4016312EE
:1025F000690937160100E685130606616A85EFF062
:10260000BFC63309AD00930CE0056391740DB74468
:102610000100138504BEEFE05FB84A95930C0008F3
:1026200063F8AC00138504BEEFE03FB73389AC40DC
:10263000138604BEB30524014A85EFF0FFC22A9930
:10264000B3072401238007004A87A28605468145F7
:102650001D45EFF0DFABDA9ADE84C5B5A2479305DE
:10266000000222851389870052994A86EFE07F9500
:10267000B9B7B387240163F23705B3872A019423DE
:10268000B717010013864760A1452808EFE01FB285
:102690006A853008E685EFF03FBD0509937779003C
:1026A0002A9DA1F7B7470100B305A4016A851386E7
:1026B0000711EFF07FBB2A9D0DBFB7170100214620
:1026C0009385C7602808EFE0FFA7D9B763F8340304
:1026D000B3079C009423938706FE63F4FC009306E3
:1026E000E00213864D61A1452808EFE03FACB30539
:1026F00024014A853008EFF03FB72A99850431B7A5
:10270000EFD23FCA1C4D41112A8491C732C62EC454
:1027100082973246A2459D475CC810C82285414633
:10272000EFE05FA2EFF03F959306C4029387812804
:10273000984311EB94C323260402EFF09F940145C4
:1027400041016FD05FC8BA87E5B7584593061700B7
:1027500054C514496370D7021441AA8781CAEFD2C5
:102760005FC42E85CC4382966FD0FFC51C45BA97B7
:102770008CA382808280EFD23FC1937737002A8476
:102780002E8BB284368A3A89832AC5008DC395E0A0
:1027900013792900631D09026FD05FC293050002FF
:1027A0002285EFF09FFA8509E3EA49FFCDB7B289A8
:1027B000E5BFFD14B3079B00838507002285EFF07A
:1027C000DFF8F1B7930500022285EFF01FF85C44B3
:1027D000B3875741E3E847FFC1B7EFD29FB979719B
:1027E000BE8A2AC6B3E7C500368A3A89428D468436
:1027F000A1EB9397480163CE0702930700032308D8
:10280000F10013F4F8FE8544937724002686C5EB87
:102810009377140063090D00DDC363150A00137775
:10282000C40011C37D1D2686130700029306000312
:1028300051A0C1478144E319F7FC13F4F8FEE9B74E
:1028400093F70802AE8DB28B9309100699C39309D2
:102850001004130B01018144814C254CD9194A867F
:1028600081466E85DE85EF8080581377F50F62050F
:102870006185634BAC0213070703620761874A86D1
:1028800081466E85DE8585042300EB00EF80001D08
:1028900063947C01E3EA2DF793070002050BE385BF
:1028A000F4F6AA8DAE8B65BF4E97C1BF0C08B295EA
:1028B00094A1050689C76374A601E319E6FE930790
:1028C00000021307000329A01408B29698A2050677
:1028D00063745601E31AF6FEA1476315F90063F32A
:1028E000C4003D988967C107E18FADC393174401C8
:1028F00063C4070215C26384CA00631FCD0063F27C
:10290000C40C7D1611CAC147630AF90A89476315C9
:10291000F90263FDC4067D16C1476316F906937775
:102920000402B1EBFD4763EFC7021C18B29713070F
:1029300080072380E7FE0506FD4763E5C7021C18F4
:10294000B297130700032380E7FE0506FD4763EBFC
:10295000C70063050A041C18B2971307D00223802E
:10296000E7FE050632450C082287EA86EFF0BFE055
:1029700045616FD0DFA3FD47E3E6C7FE1C18B297A1
:10298000130780057DB78947E318F9FAFD47E3EBA4
:10299000C7FC1C18B2971307200661BF9377440049
:1029A00091C71C18B2971307B00255BF93778400E4
:1029B000D5DB1C18B2971307000255B7E3EDC4F43A
:1029C000B9BFC147E314F9F499BFEFD29F9A4111FF
:1029D0009357F6013EC0AA842E8DB289B68D89C761
:1029E000B7070080B3C9C7006A85CE85EFA0E03085
:1029F000C5669386866293973D00B69703AA070043
:102A000083AA47002A8C2E89EFA0E03A2A86AE8658
:102A10006A85CE85EF90F02C5286D686EF90E060E6
:102A20002A8BAE8BEFA0602DAA8C2E84EFA0A0384D
:102A30002A86AE865A85DE85EF90B02A37180100C7
:102A4000032B0862832B48622AC45A86DE862EC670
:102A5000EF9060473718010042C22247B2476353E4
:102A6000A00A93861C0033B6960132943685A2855F
:102A7000B68CEFA040342A86AE865285D685EF907C
:102A8000604F634AA00093071C00B3B687013699D4
:102A90003E8C814C0144639A0D046285CA85EFA087
:102AA00080312A86AE866A85CE85EF909023924744
:102AB0002A8AAE8A03AB076283AB47625A86DE86F8
:102AC000EF90404B635A05005A86DE865285D685C4
:102AD000EF90603F635BA00093761C0099C693065D
:102AE0001C0033B686013299368C824723A08401BC
:102AF00023A2240123A49401C0C49CA826854101DB
:102B00006FD0FF8A5A86DE863A85BE85EF90003503
:102B100059F1B3E68C0081C693F61C00ADDE9386B6
:102B20001C0033B696013294B68CB5B7EFD27F84D1
:102B3000AA8B2E8CBA8C3E8DC68D864A9649264429
:102B40006307080C056793070701B3F7FA0032899A
:102B5000B684428B6397E7166344D000F1E669C6FA
:102B6000294681464A85A685EF705033C98D639703
:102B700005144A85A68529468146EF70E0747D1BC1
:102B80002A89AE84F1BF294681464A85A685EF7021
:102B9000F0301305050333844901A30FA4FEA68575
:102BA0004A8529468146EF702072AE84C98D2A89F4
:102BB00013071A00930710028DE113070002930612
:102BC0000003630FEA0013041A00B3874901631D71
:102BD0006A031307E00298A381A83A8AE315FAFA78
:102BE0001304000213F73A008547631DF708638B4F
:102BF0000D0863950C0093F7CA0091C3FD1D930760
:102C000000021307000395A094A3228A5DBF93F7E7
:102C10000A0199CB93070002E304F4FCB38789000F
:102C20001307E00298A305049304000205A82946AF
:102C300081465E85E285EF70702605041305050365
:102C400033898900A30FA9FEE2855E852946814666
:102C5000EF7080672E8CC98DAA8BC9D5E31994FCBF
:102C600041B7B386890098A20504637DB401E31AD5
:102C7000F4FE5687EE862286CE856A85EFF0BFAFDA
:102C80006FD0EFF293070002E305F4FE63890C00B6
:102C9000B38789001307D00298A30504D9BF13F79F
:102CA0004A0011C7B38789001307B002F5B713F7BD
:102CB0008A0061D3338789001CA3C5B7B367990025
:102CC000A5D7130A140093071002229B01BFEFD26D
:102CD0004FEA5D713E899357F6013ACC42D046D215
:102CE0003ECE2A8DAE89B2843684814A89C7B70721
:102CF0000080B3C4C700014681464E85A685EF908B
:102D0000E015630F0532B71701001397C400318334
:102D100003A6076C83A6476CB707F03FD98FBE8523
:102D20004E85EF90007C2A86AE862A8BAE8BEF9084
:102D3000C02FB717010003A6876C83A6C76C2A8A29
:102D4000AE8A5A85DE85EF90402EB717010003A6A4
:102D5000076D83A6476DEF802042B717010003A6D9
:102D6000876D83A6C76D2A8CAE8C5285D685EF9071
:102D7000C02B2A86AE866285E685EF9080765286E5
:102D8000D6862A8CAE8C5A85DE85EF90002AB7173E
:102D9000010003A6076E83A6476EEF9000292A86DE
:102DA000AE866285E685EF80203D2A8A13D54401F0
:102DB0001375F57F130515C0AE8AEF90F06CB71749
:102DC000010003A6876E83A6C76EEF9000262A86B1
:102DD000AE865285D685EF80203A2A8AAE8AEF9059
:102DE00030642A8B014681465285D685EF90A00D2E
:102DF000635D05005A85EF9030692A86AE8652855C
:102E0000D685EF90A00511C17D1B9307C0EC630927
:102E1000FB4A5A85EF905067B717010003A6076F6A
:102E200083A6476F2A8CAE8CEF902020B717010045
:102E300003A6076283A64762EF8000342A8AAE8A1F
:102E4000EF90105EAA8B014681465285D685EF90A1
:102E50008007635D05005E85EF9010632A86AE866D
:102E60005285D685EF80907F11C1FD1BB7170100F9
:102E700003A6876F83A6C76F6285E685EF90E01A89
:102E80002A8A5E85AE8AEF903060B717010003A6EC
:102E9000077083A64770938BFB3FEF9000192A863B
:102EA000AE865285D685EF90C0632A86AE86AE8CFC
:102EB0002A8CEF9080172A8AAE8AE6866286E6859B
:102EC0006285EF80602BB716010003A6867083A68B
:102ED000C6702AC82ECA5285D685EF80F01CB71658
:102EE000010003A6067183A64671EF80E0282A86BA
:102EF000AE865285D685EF80301BB716010003A63B
:102F0000867183A6C671EF8020272A86AE865285F9
:102F1000D685EF807019AE8AB71501002A8A03A5FD
:102F2000057283A54572E6866286EF90805B2A86ED
:102F3000AE865285D685EF8020244247D2472A8626
:102F4000AE863A85BE85EF803016B717010003A61E
:102F5000877283A6C772EF802022014793974B01A7
:102F60003A86BE86EF90600CAA8CAE8D2A86AE861D
:102F70004E85A685EF9000006348053693061B0139
:102F800013062002814A6362D6029357FB4133C77E
:102F900067011D8F931737004567130787623E97B8
:102FA000832C0700832D4700854A9317390163D589
:102FB000072CA28611E0854671567D14014A6347AD
:102FC000CB006355DB0033046441054A63530400BE
:102FD00001448566938606803369D90063540B00EB
:102FE00063920A3263150A0063100B06014AF24726
:102FF00081C7B7070080BD8CA286CE85268628189B
:10300000EFF0BF9C03478104E25B725C864C964DF7
:1030100063180A1863478001631A0C00A54763F719
:103020007701050B814C814D854B014C93073B0685
:103030009306600C014A954A63E1F61A914A71AA17
:10304000814C814D014B95B76686EE864E85A685EF
:10305000EF80900502C82DACEF90304AAA8B2E8CE1
:10306000EF907055C2472A86AE86A9C76686EE865F
:10307000EF8090032A86AE864E85A685EF90604647
:103080004566C2479316340013068662B2962A8AB2
:10309000AE8A83A90600C4429DC34E86A686668575
:1030A000EE85EF8090782A86AE865285D685EF80B1
:1030B000D07789A86685EE85EF80307765BF93D697
:1030C0004D0193F6F67F938616C013D6F641B18E66
:1030D0003386C64093D6440193F6F67F938616C096
:1030E00093D5F641AD8E8D8E63D5C60A4E86A686E3
:1030F0006685EE85EF80407B2A86AE865285D68532
:10310000EF80807A2A8AAE8AEF90303FAE8DAA8C0B
:10311000EF90704A2A86AE865285D685EF90603C45
:10312000B716010003AA066283AA46622ED652860B
:10313000D6862AD4EF8030591345F5FF7D8122577A
:10314000B257AA9C33B5AC003308B5015286D68677
:103150003A85BE85C28D42C8EF805050424801E595
:1031600093FCECFFC28D6685C285EF90D0442A8621
:10317000AE864E85A685EF80F05F634AA0009387F8
:103180001B0033B777013A9CBE8B814C814D72474F
:1031900051B56686EE864E85A685EF80E07021B734
:1031A00093173901814A63DA0702FD576347FB022F
:1031B0005E85E2853AC8EF90104093041B00C56716
:1031C0009396340093878762B6979043D443EF80F9
:1031D000F048424719E17D14268B9374290081C47D
:1031E000814863980A00E247814863F4FA00B38893
:1031F000574192574AC022883EC482576686EE865F
:103200003EC25E85EA87E2858329CD00EFF01F92FA
:1032100063140A0413790902930550046314090026
:10322000930550066A85EFF04FD21356FB41DA85BD
:1032300063496001B3056041B337B0003306C04055
:103240001D8E95481388FAFF814729479356FB0145
:103250006A85EFF08FD889E861616FD04F9593054B
:1032600000026A85EFF06FCE8327CD006247B387F7
:103270003741E3E6E7FECDB7E3580BD6E3860AD63F
:1032800085476686EE864E85A6853EC8EF80F05956
:10329000B306644113062013E350D6DCF24781C71E
:1032A000B7070080BD8D2E86A286AA852818EFF06C
:1032B000CFF103478104E25B725C864C964D99BB6B
:1032C000371A010003268A6B8326CA6B4E85A685B2
:1032D000EF80504AB7F719789387278DBE8C832DDE
:1032E000CA6B814AE35305CCB716010003A60671E9
:1032F00083A646716685EE85EF80005B7D1BAA8CF8
:10330000AE8DADB9E3150ACEA5BFEFD20F87B2845B
:103310001D712A8A2E8436892E862E85A686A6853C
:10332000BA8ABE89C28BEF80703311CDB715010008
:103330004E87D6860D469385C5755285EFF0AFC38F
:1033400025616FD00F87B717010003A6077383A607
:1033500047732285A685EF80F041635A0500B715B3
:1033600001004E87D686114693850576F9B7B717C3
:10337000010003A6877383A6C7732285A685EF8005
:1033800090346353A00293F7490089CBB71501002D
:103390009385457511464E87D68645B7B71501000A
:1033A000938505750D46C5BF130B010463950B048A
:1033B000B717010003A6077483A647742285A68564
:1033C000EF807030634EA000B717010003A687742A
:1033D00083A6C7742285A685EF80D039635D05007A
:1033E00081485A88CE875687CA86A2852686528506
:1033F000EFF0FF8DB1B79397490163DA0704814875
:10340000C547130700039306000263F9270133063B
:103410001B0118A285087D19E399D8FEE3930BFCE4
:10342000CA86A2852686281046CEEFF00FDAF2482B
:10343000034781034256D2562255B25546C45AC25A
:103440004EC0D6884A88D287EFF04FEED5BD1949D5
:103450007DB7EFC21FF27971368463D60500B705D8
:10346000008093C5F5FF11E18145056B416AB70AFC
:10347000008002CE02D02AD202D42ED693090B802D
:103480007D1A93CAFAFF371C01008305060099CD07
:1034900093075002130916006387F5006808EFF0E0
:1034A000CFAAA28CE5AE830716009DE3F24789EF11
:1034B000B25699CA925789CB22576364D7001387B3
:1034C000F6FFBA9723800700225545616FC03FEE93
:1034D00081479306B0029305D00213050003130839
:1034E00000029308300201A8630EB7026311A7021D
:1034F00093E71700328903070900130619006306D2
:10350000D702E3C3E6FE63050703630617039306CA
:1035100007FD93F6F60FA54563EAD506814D2546CE
:1035200029451DA093E72700F1B793E74700D9B7D6
:1035300093E78700C1B793E707016DBFB38DAD0275
:103540002E89938D0DFDB69D830609009305190004
:10355000138706FD1377F70FE372E6FE8306090073
:103560001307E002639CE60E83061900B3E73701F8
:1035700095DE138606FD1376F60FA5451307190091
:1035800063EBC50A8144A54529482DA89306A002EE
:10359000814DE315D7FC832D04001307440063D647
:1035A0000D0093E72700B30DB04183061900E38FA8
:1035B00006EE3A8432895DB7B38404032A87938484
:1035C00004FDB2940306070013051700930606FDD9
:1035D00093F6F60FE3F2D5FE830607001306C00646
:1035E00013091700638AC608634DD60613068006C2
:1035F0006385C60A1306A006638DC60A3A89830549
:103600000900130750060509638DE528634EB714BA
:10361000130770046387E5286342B70A1307500451
:103620006381E528634AB72493075002E398F5E6DF
:1036300093055002A5B51306A0028144E39EC6F887
:1036400004409306440063D3040081440306290028
:1036500013072900E30C06E43684BDBF4A87814482
:10366000A5BF130640076386C6001306A007E397AD
:10367000C6F893E7072081A003061700E30806E2D7
:103680006305D60093E707209DBF93E70760130902
:1036900027000307270025F711BD03061700E307DE
:1036A00006E06305D60093E7070891BF93E7070C90
:1036B000F9BF93E7074003071700F1BF1307200680
:1036C0006388E500634BB70813078005E398E5DCE2
:1036D000130740066386E500130790066394E50030
:1036E0001167D98F9306800741476382D50213077C
:1036F0008005638AE52E9306F00621476389D5008D
:103700009306200609476384D500BD9B2947B3F67D
:10371000370191C2F99B1396170193F60740635541
:103720000610DDCE1D04619854401040BE8813D5AC
:10373000F641298E3348D500B305A6403336B6008E
:103740003305A840930C84006E88A687FD8233065B
:10375000C5406808EFF06F8891A2130730066387B1
:10376000E516130740069DB71307F006E382E5F65A
:10377000634AB702130770066385E51263CEE50E50
:1037800013079006E386E5F41307E006E398E5D017
:1037900013F7070414402256930C440063030722D6
:1037A00090A2EDA8130730076385E5166343B702BF
:1037B00013070007E394E5CE0C40096705075D8F0A
:1037C000930C4400639A051EA946154693050C7791
:1037D000A1AA13075007E38DE5EE13078007FDB597
:1037E00093F60720930C44009DC2144013D6F64173
:1037F000B6856349D000B305D0403335B0003306F9
:10380000C040098EBE886E88A687FD8299B713F6E0
:103810000704144001C6E206E186C9BF13F6070893
:1038200071D6C206C186D9B793F837FF99CA1D046D
:103830006198930C84006E88A68781460C405040A6
:1038400009BF93F60720930C440099C60C406E887C
:10385000A68781460146F5BD93F607040C4099C63C
:1038600093F5F50F6E88A6878146EDB793F70708A5
:10387000F5DBB3F54501FDB7130760046394E5007C
:1038800093E707021D046198930C840001480C40E3
:1038900050406E87A6866808EFF03FA766844A8688
:1038A000EDB613F7F5FD930670046315D700B3E783
:1038B0006701F599130750046394E50093E7070245
:1038C0001D046198930C84000548D1B713FD2700AF
:1038D0008544631E0D00854739A0930500026808E2
:1038E000EFE0BFE6A68793841700E3E8B7FF830500
:1038F00004006808930C4400EFE03FE5E3000DFA94
:10390000E3FEB4F9930500026808EFE01FE48504C4
:10391000C5BF1440930C440081EE3E87B7170100E9
:10392000EE861946938587766808EFE0DFE4BDB739
:10393000268791E056873386E600368783050700A1
:1039400099C16315C70233FD3701B30BD740630537
:103950000D0063F37401A68B13F4270011E4938721
:103960001B0063E7BB01BE8BB6942DA00507F9B71A
:103970009305000268083EC636C4EFE01FDDB2477B
:10398000A246BE8BE9BF8506680836C436C6EFE09E
:10399000DFDBA2468385060089C5E3060DFEE394BE
:1039A00096FEE30D04EEE3FBBBEF9305000268080F
:1039B000EFE0BFD9850BC5BFBA882948A687414724
:1039C00065B513F7070819C392A2C9BD13F70720FD
:1039D00019C390C2E1B593F7074090C2E38007ECAA
:1039E00023A2060065BD93E7070241470DB32A876E
:1039F000814718436314A7003E8582808507D5BFA1
:103A0000B707EFBE37E700E0938707083CC70145DB
:103A10008280EFC21F993715010013058577EFD01B
:103A2000DF8101456FC03F9AEFC2BF972A84FD54E2
:103A3000372901007D14631494006FC0DF981305CB
:103A40004909EFD08FFFFDB7EFC21F940041AA8450
:103A500037290100B7390100631494006FC01F9625
:103A6000930544FE13058909EFD02FFD1C406386A2
:103A70009700138589E3EFD04FFC0040F1BFEFC200
:103A80005F922E89EFD06FF12A84EFD05FE9832413
:103A90000900639C2401EFD03FEAC14763C387005C
:103AA00011E0414422856FC01F921385C4FEEFD000
:103AB000CFEE6353A4002A848440E1BFEFC2FF8BA2
:103AC0000545EFD05FB7B7490100130945002A84C7
:103AD000CA851385C9B7EFF09FFAAA85AA8437254E
:103AE00001001386C9B7130585B3EFD00FF52685FE
:103AF000EFF09FF3372501001305C5B7EFD0EFF3C3
:103B00004040B7290100054A894A372B0100B72BED
:103B10000100372C0100B72C0100372D010063157F
:103B2000890001456FC0FF88034794021385C9BB14
:103B30009306C4FE4146A685EFD02FF0834784024A
:103B400013858CBCBD8B638E470113054CBD638A06
:103B5000570113850BBE91C711476396E700130504
:103B6000CBBEEFD08FED4C4C93073002AE8698223F
:103B70006306F7021050930740060848B295B386D3
:103B8000D540B386F602585C5C50898D13058DBF15
:103B9000B3D6C602EFD06FEA004051B78506C1BF69
:103BA000EFC28FFE41110945EFD0FFA893094500F0
:103BB000372901002A84CE85130589ADEFF03FEC4B
:103BC000AA85AA8437250100130689AD130545AEE1
:103BD000EFD0AFE62685EFF03FE53725010013056E
:103BE00005B0EFD08FE54040372A0100B72A010029
:103BF000373B010063968900014541016FC00FFC0E
:103C00001A281C449306C4FE1309840036C63AC41D
:103C10004A856306F902EFF09FDD2247B246AA8784
:103C20004146A68513858AB1EFD02FE14A85EFF092
:103C3000BFE113050B59EFD04FE0004065BFEFF037
:103C40001FDB2247B246AA874146A68513058AB2E2
:103C5000EFD0AFDEDDB7EFC22FF341111145EFD04A
:103C60009F9D93094500372901002A84CE851305BD
:103C70000981EFF0DFE0AA85AA8437250100130649
:103C8000098113058581EFD04FDB2685EFF0DFD961
:103C9000372501001305C583EFD02FDA4040372ABE
:103CA0000100B72A0100373B0100639689000145F6
:103CB00041016FC0AFF01C44130984009306C4FE99
:103CC00018486309F9024A8536C63AC4EFF03FD274
:103CD0002247B246AA874146A6851385CA85EFD0FA
:103CE000CFD54A85EFF05FD613050B59EFD0EFD44F
:103CF000004065BF4146A68513054A87EFD0EFD344
:103D0000C5BFEFC26FE841110D45EFD0DF92B72973
:103D10000100130945002A84CA85138549A7EFF0DD
:103D20001FD6AA85AA8437250100138649A7130543
:103D3000C5A7EFD08FD02685EFF01FCF3725010024
:103D4000130505AAEFD06FCF4040B72901006316D5
:103D50008900014541016FC06FE69306C4FE13055B
:103D6000840036C6EFF0BFC8034834015C48B24651
:103D7000AA8841474146A685138509ACEFD0EFCB11
:103D80000040F1B7EFC24FE041111545EFD0BF8AB7
:103D900093094500372901002A84CE8513058988B7
:103DA000EFF0FFCDAA85AA84372501001306898884
:103DB00013050589EFD06FC82685EFF0FFC63725BC
:103DC00001001305458BEFD04FC74040372A010053
:103DD000B72A0100373B0100639689000145410184
:103DE0006FC0CFDD7A285E2810449306C4FE130905
:103DF000840036C63AC43EC24A856307C902EFF062
:103E00001FBF92472247B2462A884146A68513859E
:103E10000A8DEFD08FC24A85EFF01FC313050B59EF
:103E2000EFD0AFC100404DBFEFF07FBC92472247BB
:103E3000B2462A884146A68513058A8EEFD0EFBF89
:103E4000D5B7EFC26FD441111945EFD0CFFE93091A
:103E50004500372901002A84CE851305C9A0EFF05B
:103E60001FC2AA85AA84372501001306C9A013051D
:103E700085A1EFD08FBC2685EFF01FBB3725010051
:103E8000130545A3EFD06FBB4040372A0100B72A86
:103E90000100373B010063968900014541016FC075
:103EA000EFD11A2C1C449306C4FE1309840036C6B5
:103EB0003AC44A856306F902EFF07FB32247B2465F
:103EC000AA874146A6851385CAA4EFD00FB74A85B5
:103ED000EFF09FB713050B59EFD02FB6004065BF29
:103EE000EFF0FFB02247B246AA874146A6851305E8
:103EF0000AA6EFD08FB4DDB7EFC20FC91D45EFD0D2
:103F00008FF3B7290100130945002A84CA85138558
:103F10000990EFF0DFB6AA85AA8437250100138641
:103F2000099013058590EFD04FB12685EFF0DFAFF4
:103F30003725010013058593EFD02FB04040B729F6
:103F400001006315890001456FC04FC703280401B4
:103F50005C4858449306C4FE4146A685138549969D
:103F6000EFD0AFAD0040F1BFEFC20FC22145EFD09F
:103F70008FECB7290100130945002A84CA851385EF
:103F80000998EFF0DFAFAA85AA84372501001386D0
:103F9000099813058598EFD04FAA2685EFF0DFA882
:103FA000372501001305059BEFD02FA94040B72905
:103FB0000100372A0100B73A010063158900014565
:103FC0006FC0CFBF832884029306C4FE18481C4CE0
:103FD0000328C401638208024146A68513054A9D51
:103FE000EFD0AFA513050402EFF01FA613850A5901
:103FF000EFD0AFA40040D1B781484146A6851385D4
:10400000099FEFD08FA3FDB7EFC20FB85D712545B3
:10401000EFD06FE2C565130600052A841309450039
:104020009385051F0A85EF90605BB7190100CA856B
:104030001385897AEFF0BFA4AA85AA8437150100F9
:104040001386897A1305057BEFD02F9F2685EFF025
:10405000BF9D371501001305857DEFD00F9E4040B1
:10406000D149371A010063168900014561616FC0AB
:10407000EFB41C449306C4FE63E0F90298088A0773
:10408000BA9703A707FB1C284146A6851305CA7FDC
:10409000EFD0AF9A0040C1BF4647F5B7EFC2CFAEF1
:1040A0002945EFD04FD9B7190100130945002A84DB
:1040B000CA851385C956EFF09F9CAA85AA84372527
:1040C00001001386C956130505C2EFD00F97268548
:1040D000EFF09F9537250100130585C4EFD0EF95CC
:1040E0004040B7290100372A0100B72A0100631EAA
:1040F0008900EFC08FB8AA8537250100130505CACE
:10410000EFD0AF9301456FC06FAB5C4C184C13857B
:10411000C9C69306C4FE4146A685EFD00F928347D9
:10412000D4FF13854AC8858B99E313050AC9EFD0DC
:10413000CF9000406DBFEFC22FA5371501001305CA
:104140000578EFD08F8F03A4418DB7190100371A7E
:10415000010083A7818D6365F40001456FC00FA640
:1041600004400946938549792685EF90F04319C5A7
:104170005040A68513058A79EFD02F8C3104D1BF2A
:10418000EFC28FA0372501001305451FEFD0EF8A3E
:1041900003A4418DB7290100372A010083A7818D2F
:1041A000636BF4003735010013050559EFD0EF8834
:1041B00001456FC0AFA004401946938509212685AB
:1041C000EF90903E01E950409385640013058A21E9
:1041D000EFD0AF863104D9B705458280EFC2CF9AC0
:1041E00079712A84AA959306000225478307040063
:1041F000B38485406385D70A6383E70A0145638BEF
:104200000410014913070002A546B3072401838760
:104210000700638AE7086388D7086314990883A9AD
:10422000418D83AA818D372B010063F0590903AAC0
:104230000900194693050B215285EF90F03659E598
:104240004A86A28513056A00EF90103641E14A9A2A
:1042500083076A00A5EF83A9890063880904130610
:10426000800281452800EFC0CF9613098100CA86DD
:10427000A2870145014713080002A54829431306F8
:104280002002130EC0058385070063840501639631
:104290001505631F9702A9476303F50469A8050480
:1042A000B1B705099DB7E31C09F6A287038707008C
:1042B0001377F7FD79E7372501001305C51D238026
:1042C0000700A285EFC07FF77D55A9A0B109B1BF56
:1042D00023800700050785077DB763106504372530
:1042E00001001305851BEFC05FF50018B72401001E
:1042F000832509001385841D1109EFC01FF4E319FC
:1043000089FE3735010013050559EFC01FF3294514
:104310002C00829945616FC06F8A637E9700050506
:104320006392C504850705079CC2838507006381E6
:10433000C5026364970069FD8DBF838E1700639685
:10434000C5016394CE008507050785070507F1BF02
:10435000E37397FE23800700050785079106E36452
:1043600097F2D1BF9CC283850700638905016387EB
:104370001501E30297FC85070507F5B7E36097FE93
:104380005DBF850725B7EFB25FFF8307050099E79B
:1043900081450145EFF0DFDE6FC0AF8103AA418D9B
:1043A000AA8981440149372B0100B72B010083A75B
:1043B000818D6369FA00EDD04A86A6854E85EFC0EF
:1043C0007FD8D9BF03240A00194693050B21228503
:1043D000EF90901D21E14E85EF90F01B19042A8685
:1043E000A2854E85EF90501C15E5631709002285C4
:1043F000EF90701A2A89A284A68722870386070075
:1044000001EE858F63D327013E89A28513850B2298
:10441000EFC0BFE2310A61BF83060700FDD2E3129D
:10442000D6FE85070507D9BFEFB2BFF7EFF00FE95A
:1044300001456FB05FF9EFB2DFF6EFC0FFF4014561
:104440006FB07FF8EFB2FFF503A5018DEFC00FCC81
:1044500001456FB05FF7EFB2DFF4B7470100938714
:10446000C72C23AAF18CB74701009387C75023AC10
:10447000F18CB74701009387C75023AEF18CB74743
:1044800001009387C75093058021054523A0F18E35
:104490001384018DEFD0EF8C08C019E93725010096
:1044A0001305452DEFC07FD97D5422856FB0BFF134
:1044B000B745000037250100A9470D479306004086
:1044C00001469385655D1305C52EEFD0CFDEAA8426
:1044D0000840B7250100814601469385452FEFC06E
:1044E000CFB70144F9D02685EFD08FF97DBFEFB269
:1044F0005FEBEFF07FCE0DC5B72501009385052A50
:1045000013858139EF903008B72501009385052B7D
:1045100013858139EF90D003138581396FB0BFEADD
:10452000B72501009385852AE1BFEFB29FE72A8472
:10453000372501001305C530EFC03FD0EFF03FFB3A
:10454000AA85372501001306241C13054531EFC049
:10455000DFCE01456FB03FE7EFB2BFE441112AC69D
:10456000EFC02F82B24511E9372501001305452B15
:10457000EFC0BFCC41016FB01FE583A7018DAA84B6
:104580001384018D83A74721E386A7FE930530148A
:10459000EFC00F8765F11C4003A5472109C9EFC093
:1045A0000F8E1C40814503A54721EFC00F960040A8
:1045B0001306000581451305241CEFB09FE1B745A4
:1045C000000023190420232A94209385454426853E
:1045D000EFC0AF9345B7EFB2DFD983A7018D41118B
:1045E0009384018D03C7C702136717002386E70270
:1045F00083A7472191E7EFC03FBD19C1EFF0DFF579
:10460000EFF0FFEEEFC07FC3372B0100B72B0100A7
:10461000B7290100373A0100B71A0100372C010011
:10462000B72C01009C4085461306F10003A54721E5
:10463000FD55EFC08F888547631AF5000309F10027
:10464000ED4780406319F90008D4E9BF8840FD5563
:10465000EFC02FA3C1BF1C546392A7029307B005FC
:104660006315F90089471CD475BF23240402E30BAA
:1046700009FAA5476314F9120149D1A80947E3983B
:10468000E7FE23240402930710046312F9046E3436
:10469000D1D9FD15C205C1816EB49307241C13073F
:1046A0000005B385E502130600053E8593852503C5
:1046B000A295EF80B072EF90006E1375F50F23098D
:1046C000A420A309A4202285EFF03FE6A1BF930711
:1046D00020046311F90216387E341387F6FF63D87D
:1046E000E70085077EB49307241C6E344DBF9DDA26
:1046F0007AB4D5BF930740046310F902834734218D
:1047000095D31385C92FEFC05FB3984083473721F6
:10471000FD17A309F72039B793073004E319F9F41B
:104720008347342103472421E3FEE7EE3E948305CB
:10473000241C13854A61EFC05FB09840834737213E
:104740008507C1BF1385C92FEFC03FAF0509804062
:1047500083473421E348F9FE13050A59EFC0FFAD42
:10476000EFF09FA785471304241C6315F5002285ED
:10477000EFF07FC1EFF0BFD72286AA8513854C31B9
:10478000EFC0BFAB80401305241CEF90C0601375D1
:10479000F50F2309A420A309A42069B59307F00706
:1047A0006305F900A1476315F90883473421E38BBA
:1047B00007E603462421FD1793F7F70F7D161376BE
:1047C000F60F2309C420A309F42063F8C7049385D6
:1047D000371C1385271C1D8EA2952295EFC01F92B2
:1047E0009C4013850B3003C727213E972301071CEC
:1047F00083C537219385251CBE95EFC01FA49C401F
:1048000003C437219C4083C72721E3CD87E013856C
:10481000C92FEFC09FA20504F5B713058B30EFC079
:10482000DFA19C4003C72721BA972381071CDDBB6A
:104830003547834724216305E9002947631EE90EB4
:10484000B9CB035904039147130D241C63FB2709BB
:10485000930D241713060005EA856E85EF80D05569
:104860001DC9130924034A85130909051306000508
:10487000CA85EF80B056E3982DFF130600058145E9
:104880006E85EFB01FB503462421EA856E85EF8063
:10489000F05495471EB81E387EB4EFF0FF9385475D
:1048A0006312F5029C4083C7C702858B89C7130535
:1048B0000A59EFC09F988840834525211305251C80
:1048C000EFF0DF91EFF0BFC2EFC03F9780401306DB
:1048D000000581451305241CEFB0BFAF2319042048
:1048E00091B3630109021305F9FF9307000533052E
:1048F000F50213060005EA85130525032295EF80CE
:10490000B04B51D9930D00053305B90313060005CB
:104910008145130525032295EFB0BFAB0A38034646
:104920002421EA853305B503130525032295EF807D
:10493000F04A1E388507B9BF1307F0046374F70007
:104940002309042003463421834724216370F60899
:104950009305261C1305361CA2953386C740229565
:10496000EFC0CFF98C4083C735213387F500230191
:10497000271D03C7C502058B01CB9387271CBE9556
:1049800013058C09EFC07F8B9C4003C437219C40EA
:1049900083C727216346F402984083472721834633
:1049A00037218507850693F7F70FA309D720230939
:1049B000F7209306F004E3F7F6C6231907209DB10C
:1049C0001385C92FEFC07F870504D1B7A297238134
:1049D000271D8347C402858BE1D3CA8513854A61AD
:1049E000EFC0BF8555BF7C45232C0504232E05044D
:1049F0009C4381CBEFB2FF9A9305050582976FB078
:104A00009F9C01458280EFB23F9836899DCAAA8457
:104A10003284B309D600294A1C20639B4701BE306B
:104A200093F7070491C7FC44B54526859C478297B8
:104A3000FC448305040026859C4705048297E31DFA
:104A400034FD4A856FB09F97EFB2BF95AE87AE84B5
:104A5000B7260100B72501002A872A849386C6312C
:104A60000546938505351D45EFD03FA893F7041003
:104A700091C71A306155137707103DCF13F70440E3
:104A800011C71A306155137707403DC713F7040467
:104A90001309000409E70359240213790904384C67
:104AA00093F4F40F26B039EBB1C36848298142056D
:104AB00041813105EFC03F987048AA8431052982B1
:104AC00042064182814588C0EFC0AFCF23A20400D7
:104AD0003E3023A4040024CC93E707103EB07C446E
:104AE00013060010C145DC43228582973E30014504
:104AF0003369F900231124036FB0FF8CE5DB93E4E5
:104B0000041026B0E5B70948AA8763810503EFB210
:104B10005F890D48638205030547639AE5041A31EE
:104B20001377F7FD1AB101456FB0FF891A3113678A
:104B300007021AB101458280328775D65042744906
:104B4000834545022982A9824206C2064182C1826A
:104B50006304D6001D45E9F91443B4CB5443F4CBA8
:104B6000F9D1F447BA853E85944282966DBF7C4563
:104B7000DC43829755BFEFB23F813684B1CA3E31E4
:104B8000AA89328993F70710B6849DE37D5AA94A12
:104B900083A7C9044E85DC4782976309450123003A
:104BA000A900FD14050963035501FDF0058C0DA056
:104BB000244D368A854AEFD00FCCFE20DA202A8693
:104BC0009444631AF70081EAEFD0AFCB3304444139
:104BD00022856FB0AFFE98403E97034B070003A7B6
:104BE00049058507C2072983C1834207FEA0418387
:104BF00063E4E700239304006394560123A40400B4
:104C00003285EFD00FC87D1A230069010509E3142E
:104C10000AFA6DBF03474502854763ECE7023E3160
:104C200093F707109DC7EFB2CFF72A84284DEFC046
:104C30009F953E30232C04041306001093F7F7EFE2
:104C40003EB07C44C5452285DC43829701456FB068
:104C50008FF701458280EFB2CFF43757000013077A
:104C6000679E18D937570000130787A458D93757BC
:104C70000000130747C118DD37570000130767B757
:104C800058DD37570000130767A038C137570000B9
:104C9000130767B0420678C134C54182232E050050
:104CA0002324050223260502EFB05F926FB0AFF117
:104CB00093F5F50F85476391F50AEFB2EFEC204DC0
:104CC0004111AA847D598549FC442685DC47829799
:104CD0002A8A63072505EFD00FBA5A201C40BA97DD
:104CE000238047015E20F8488507C2072983C183D6
:104CF00042075EA0418363E4E700231204007620AC
:104D00005E20639CD7008507C207C1837EA0232451
:104D1000340163E4E70023130400EFD08FB66DB7CE
:104D20009C5485C3EFD02FB55A206E20636EB70018
:104D3000B305B7402EC6EFD0CFB49C54B2452685FC
:104D4000829741016FB08FE7FC48998DA983C20714
:104D5000C183B385B740F9BF828001CEEFB26FE463
:104D60007845B2878E2318433222029701456FB0EF
:104D70008FE57D558280EFB2CFE21387C14178473E
:104D80002E86AA8518431385C14102976FB0AFE301
:104D9000EFB22FE11387C14178472E86AA85584389
:104DA0001385C14102976FB00FE2EFB28FDF138717
:104DB000C1417847AA851385C141184702976FB052
:104DC0008FE005C611476392E602EFB28FDD7C45A6
:104DD0000E2241119C4736C632C482972246B24603
:104DE0002AA2368541016FB00FDE8146368582806A
:104DF0001DC2B28711466390C602EFB28FDA7845C2
:104E0000B2238E235843411136C60297B246410160
:104E100036856FB04FDB814636858280EFB26FD822
:104E20009387C1414947D8CF37570000130727DC84
:104E3000D8DF37570000130707DFB8C33757000024
:104E40001307A7D5ECC7B0C7AA850D461385C14186
:104E500023A4070223A6070223A8070223AA070206
:104E600023AC0702F8C3EFB06FF601456FB0AFD5C2
:104E700037550020130545EE828037F500201305D5
:104E800005008280EFB2EFD10945EF40D06D03A756
:104E900081809307803EC1563357F702B7E700E0A1
:104EA0002386D7402387D740856623A0D7109166F5
:104EB00023A0D710B7F700E023A0070023A2070024
:104EC000014690C78146D4C781461306F7FF90CBB1
:104ED000D4CB7D4798C3EFF0BFF92A84EFF0FFF9F8
:104EE000AA852285EFC06FCDEF00702F3725010016
:104EF0001305853CEFC0AFADA520EFB06FDE6FB0FE
:104F00008FCC73110134EFC0EF83B7F700E023A219
:104F10000700EFB0EFD6EFC0CF85731101347300F7
:104F200020309307F00463EDA700B147B307F50203
:104F30004965130585463E951841FD576313F700F3
:104F40000145828081478546130700023396F600AB
:104F50006306A6008507E39BE7FEFD573E8582803A
:104F6000EFB22FC485451305D007EF40107FC96508
:104F70003735010001469385053D13058582EFF025
:104F8000FFE96FB04FC4EFB2CFC113F5F50FEFF0EB
:104F90005FF919471DC90845EFF0DFFABD472A84BC
:104FA000194763E4A702EFD00F8DB1473304F40231
:104FB000B70700209387070A7D57A29783960700BB
:104FC0006398E600EFD0EF8B01473A856FB0AFBF33
:104FD00041677D1798C323A2070023A40700DDB70C
:104FE000EFB28FBA13F5F50FAE84B289368A3A89DB
:104FF000EFF03FF3994731CD0845EFF0BFF43D475F
:105000002A8499476367A704EFD0EF86B146B306B9
:10501000D402B70700201387070A2A869387070A56
:10502000369783160700639F96004C43639C4501A7
:105030002E2363993501184763162701EFD06F843B
:10504000814701A87D576389E6003285EFD06F83E1
:105050009D473E856FB08FB631453305A4023E951E
:1050600006A1232245012311350123242501328580
:10507000F1B7EFB20FB3011113F5F50F32C602CA43
:1050800002CC02CEEFF0FFE915C11C453246FC828E
:10509000C1473ECE8D473ECC11C60547631BE60097
:1050A00091473ECE48414C08EF40103805616FB043
:1050B0008FB109476315E60093078004DDB76315D8
:1050C000F60093078002F1BF9147E31DF6FCD1473C
:1050D000C9BFEFB26FAB011113F5F50FB28902C270
:1050E00002C402C602C802CA02CC02CEEFF07FE3BD
:1050F000AA8419459DCC0544639389108844EFF038
:105100007FE42A84BD47194563E58702EFC0BFF6F7
:105110003147B306E402B70700209387070A2A89BC
:10512000B69703960700FD566318D600EFC07FF5CB
:10513000194505616FB08FA89444BE230D46748253
:1051400032C436C802CA4ECE6382370BD1CB094770
:105150006383E70AC8404C00EF40102DD840B717D2
:105160000140938607C005456302D7020945630FD6
:10517000F700938707400D45630AF700B727014002
:105180009387078001456313F70011459375F40F6A
:10519000EF40D0360808EF40500E49650E04130565
:1051A000853E2295504137E700E093060005B3079E
:1051B000C7002380D740935756009387070485463E
:1051C0008A07BA97B396C60094C39387418E1A2173
:1051D00094434A85558F98C3EFC0BFEA014591BFFC
:1051E000930780023EC6A1473ECCADB7930780042B
:1051F0003EC63ACC85B791473EC6C147F5B769551B
:10520000E39909F28844EFF0FFD3AA84BD4719451A
:10521000E3E197F2EFC03FE649678E041307873E4C
:1052200026971386418E16230C4293C7F6FFED8F07
:105230001CC2138606FE420641829305001E63E2ED
:10524000C50293F7073EC9FB58439357570093870E
:1052500007063314E4008A0737E700E0BA9780C3F3
:10526000A5BF938606C0C2062166C182130606C08A
:10527000E36CD6FCC166938606C0F58FE9B7EFB242
:105280004F9213F5F50FEFF0DFC9AA87014589C7E3
:105290008E27C843EF4050256FB0EF92EFB26F906A
:1052A000411113F5F50F32C6EFF0BFC711C50E253A
:1052B00032464841EF40F02341016FB0CF90EFB24A
:1052C0004F8EEFF03FC8B1473305F502B707002016
:1052D0009387070A3E955C4199C3084582976FB052
:1052E0008F8E73110134EFB0FFC50545EF40807F0D
:1052F00019C50545EFF0BFFC0545EF409000EFB044
:105300005FC7731101347300203073110134EFB0A3
:105310007FC30945EF40007D19C50945EFF03FFA0D
:105320000945EF40007EEFB0DFC473110134730014
:10533000203073110134EFB0FFC01145EF40807A87
:1053400019C51145EFF0BFF71145EF40807BEFB075
:105350005FC2731101347300203073110134EFB058
:105360007FBE2145EF40007819C52145EFF03FF59C
:105370002145EF400079EFB0DFBF731101347300B6
:10538000203073110134EFB0FFBB4145EF40807511
:1053900019C54145EFF0BFF24145EF408076EFB0CF
:1053A0005FBD731101347300203073110134EFB00D
:1053B0007FB913050002EF40E0721DCD1305000216
:1053C000EFF0FFEF13050004EFF07FEF1305000887
:1053D000EFF0FFEE13050010EFF07FEE1305002055
:1053E000EFF0FFED1305003EEF40A071EFB07FB886
:1053F000731101347300203013050004EF40806EF8
:1054000055FD13050008EF40E06D4DF91305001040
:10541000EF40406D45F513050020EF40A06C59FDAD
:10542000F1B732858280EFA2DFF724452A84930505
:1054300050529C40C843EF40706009CD854522859D
:10544000EFF01F879C4093055052C843EF40D06255
:105450006FA07FF79C4093054042C843EF40105E29
:1054600065D99C4085452285DC439A23DE231C5464
:105470008297F9BFEFA2FFF22045930500021C407E
:10548000C843EF40105B01C91C40DC43CA231375BD
:10549000F50F6FA05FF37D55EDBFEFA29FF02445A0
:1054A0002E849C4093050004C843EF40905875D962
:1054B0009C4042044180DC430545C2A36FA0BFF07D
:1054C000EFA23FEE41473C45638BE50445476395BA
:1054D000E504984305461447484393D756009387FD
:1054E00007063316D6008A07B7E600E0B6971443DE
:1054F00090C3B73701009387C7820146638AF600DD
:10550000B737010093874783930550526394F600A1
:1055100093054042EF40704D01456FA0DFEA98438C
:1055200005461447484393D756009387070433161C
:10553000D6008A07B7E600E0B69790C3B7370100F8
:1055400014439387C782054655BFEFA2FFE3370593
:1055500002401305C506EF40C05113040002098C38
:1055600083D7818E42044180638087029384818E39
:105570009385C14663FC87003306F440BE951385CE
:10558000C148EF00501E82A06FA05FE31306000227
:105590001D8EBE951385C148EF00F01C6DD4228688
:1055A0009385C146E9BFEFA23FDE370502401305F0
:1055B0000543EF40004C13040004098C83D7A18EEF
:1055C00042044180638087029384A18E9385415277
:1055D00063FC87003306F440BE9513854156EF0007
:1055E000901882A06FA09FDD130600041D8EBE954B
:1055F00013854156EF0030176DD4228693854152B2
:10560000E9BFEFA21FDA397124452E893284814522
:105610001306C002480836C6EFA0BFDBB246854776
:105620006397F60685450545EF4050112285EF400A
:10563000C0289C40D8434ACC02CE930747003ECABC
:10564000B7470040938707406319F70493070002A8
:105650003ED0930700083ED44C08930700022285F1
:105660003EDA02D202D602D802DC02DEEF40A03BD4
:1056700022858545EF40A03E9C40054693050004E9
:10568000C843EF40F039014521616FA0DFD389475E
:10569000E39EF6F88545094541BFB757004093871B
:1056A00007C0E318F7FA930700045DB7EFA2DFCD58
:1056B0009C412045A14641115CC0B1477EA4DC411C
:1056C00023180400AA8413F7F7006301D702A54644
:1056D000631ED70005671AA413D747000D8B01C7B7
:1056E00085466308D7002315040031A02314040065
:1056F000E5B709673AA499838D8B05476389E7006D
:1057000081C709476384E7242316040021A0930777
:1057100000605EA41C40D843B747014093870780D0
:10572000631EF70411658545110502C202C402C655
:10573000EF40B00293070020371901407C828D4969
:10574000E1474C00130509803EC64EC4EF40C04DF2
:10575000930700407C824C009147130509803EC6A8
:105760004EC4EF40604C1C4093054400C843EF40DA
:10577000701D1C408545C843EF40D0251C40D843D0
:10578000B747004093870740631AF70685453705FA
:10579000020002C202C402C6EF40007E85451145E8
:1057A000EF40A07B9147371901407C828D49E1474A
:1057B0004C00130509803EC64EC4EF40E046A147A9
:1057C0007C824C009147130509803EC64EC4EF40D1
:1057D000A0453706024085461306C6069385C14696
:1057E0002685EFF01FE21C4093054400C843EF40BC
:1057F00070151C408545C843EF40D01D1C40D84360
:10580000B7570040938707806313F7068545370530
:10581000040002C202C402C6EF400076854521455D
:10582000EF40A07393070040371901407C828D49F7
:10583000E1474C00130509C03EC64EC4EF40C03ED0
:105840008567938707807C824C009147130509C0C8
:105850003EC64EC4EF40403D1C4093054400C84343
:10586000EF40500E1C408545C843EF40B0161C4029
:10587000D843B7570040938707C06310F7068545A4
:105880003705080002C202C402C6EF40E06E85453B
:105890004145EF40806C8567938707807C828D4708
:1058A0003EC44C009147371501403EC6EF40C0371B
:1058B00037060240894613060643938541522685E2
:1058C000EFF03FD41C4093054400C843EF409007DD
:1058D0001C408545C843EF40F00F1C40D843B757E4
:1058E00000406311F70685453705100002C202C467
:1058F00002C6EF406068854513050003EF40E06590
:1059000085677C828D44E1474C00371501403EC6D7
:1059100026C4EF4060319147371501407C824C002E
:105920009147130505403EC626C4EF40E02F1C40BA
:1059300093054400C843EF40F0001C408545C84330
:10594000EF405009014541016FA05FA79307004058
:10595000C9B373110134EFB0EFDE1385015DEFF0D1
:105960009FACEFB00FE1731101347300203073115D
:105970000134EFB02FDD13854164EFF0DFAAEFB003
:105980004FDF731101347300203073110134EFB015
:105990006FDB1385816BEFF01FA9EFB08FDD731103
:1059A00001347300203073110134EFB0AFD9138587
:1059B000C172EFF05FA7EFB0CFDB7311013473005A
:1059C000203073110134EFB0EFD71385017AEFF077
:1059D0009FA5EFB00FDA7311013473002030EFA2EE
:1059E0005F99B70D0020CD69716AB70A0400373B93
:1059F0000100B73B01001384C15B938D0D168144F8
:105A00001389C15B9389C983130A0A20A10A130B66
:105A1000CB82938B4B8393074007B387F4022322F7
:105A20004407370700C02320B4012320340793879D
:105A30000706CA979447758F3367570198C783A79E
:105A40000D0063996701130600089385414A138589
:105A5000C14809291C409C4363997701130600043F
:105A60009385C15713854156F52E1C40A286130518
:105A700044018C43130630108504EFF0CF9D954709
:105A8000B10D13044407E398F4F86FA05F92EFA2FE
:105A90005F915841B7360100B735010093860689FA
:105AA00005469385858A1D45EFC03FA46FA0BF9131
:105AB000EFA29F8D2A84AE842E871306C002830630
:105AC00007001C48A9E28306F7FF1307C00263849E
:105AD000E60085071CC80848FD571DC10A05EFB040
