:040000006F70F074B9
:100004000000000000000000047D0000247D0000CA
:10001400000000004C7F0000000000000000000011
:100024004C7F00004C7F0000000000000000000036
:10003400644A00000000000090020000000000007C
:100044004C7F00004C7F00004C7F00003A78000099
:100054004C7F00004C7F0000444E00006C4E0000BA
:10006400944E0000BC4E0000E44E00004C7F0000A3
:100074004C7F00004C7F00004C7F00004C7F000050
:100084004C7F00004C7F0000CC7B00004C7F0000C4
:100094004C7F00004C7F00004C7F00000C4F0000A0
:1000A4004C7F00004C7F00004C7F00004C7F000020
:1000B4004C7F00004C7F00004C7F00004C7F000010
:1000C4004C7F00004C7F00004C7F00004C7F000000
:1000D4004C7F0000585400007454000090540000F9
:1000E4004C7F00004C7F00004C7F00004C7F0000E0
:1000F4004C7F00004C7F00004C7F00004C7F0000D0
:10010400000000004C7F00004C7F00004C7F00008A
:10011400AC540000C85400004C7F00004C7F000029
:100124004C7F00004C7F00004C7F00004C7F00009F
:100134004C7F00004C7F00004C7F00004C7F00008F
:100144004C7F00004C7F00004C7F00004C7F00007F
:100154004C7F00004C7F00004C7F00004C7F00006F
:100164004C7F00004C7F00004C7F00004C7F00005F
:100174004C7F00004C7F00004C7F00004C7F00004F
:100184004C7F00004C7F00004C7F00004C7F00003F
:100194004C7F00004C7F00004C7F00004C7F00002F
:1001A400000000000000000000000000000000004B
:0C01B4000000000000000000000000003F
:1001C00097020120938202E4938202E0739002344A
:1001D00003210500224573100530B1A819712320B1
:1001E000250006C006C216CAF322003093F2820030
:1001F000638402009302000816C412C81ACC1ECEF3
:1002000022D026D22AD42ED632D836DA3ADC3EDEB6
:10021000C2C0C6C2CAC4CEC6D2C8D6CADACCDECE26
:10022000E2D0E6D2EAD4EED6F2D8F6DAFADCFEDE96
:1002300003A1050009A002457310153492403785CB
:10024000000013050580732005302245732005301A
:100250004242D2426243F243025492542255B25572
:100260004256D2566257F257064896482649B64932
:10027000464AD64A664BF64B065C965C265DB65DF2
:10028000465ED65E665FF65F09617300203000004F
:10029000197116CA9302000816C49302000273A0D3
:1002A000428006C212C81ACC1ECE22D026D22AD430
:1002B0002ED632D836DA3ADC3EDEC2C0C6C2CAC456
:1002C000CEC6D2C8D6CADACCDECEE2D0E6D2EAD4E6
:1002D000EED6F2D8F6DAFADCFEDE73110134EF0066
:1002E000207EEF10500EEF00900073110134138444
:1002F000818B032904006304090223200400732571
:1003000010342AC01384018B044023A024001384DA
:10031000418B044003A10400024573101534924040
:10032000B78200009382028073A00230A24273A0C1
:1003300002304242D2426243F24302549254225566
:10034000B2554256D2566257F25706489648264949
:10035000B649464AD64A664BF64B065C965C265D25
:10036000B65D465ED65E665FF65F0961730020305B
:100370000000397101436EC619A0397141536AC832
:1003800066CA62CC5ECE19A0397101535AD056D2DA
:1003900052D44ED64AD826DA22DC06DE330161403A
:1003A000828241114AC026C222C406C68282B24D50
:1003B0004101024D924C224CB24B4101024B924AF8
:1003C000224AB2494101024992442244B2404101C9
:1003D00082803D432A876373C3029377F700BDEFA2
:1003E000ADE5937606FF3D8ABA960CC34CC30CC7A5
:1003F0004CC74107E36BD7FE11E28280B306C340CE
:100400008A069702000096966780A6002307B70029
:10041000A306B7002306B700A305B7002305B7005E
:10042000A304B7002304B700A303B7002303B70056
:10043000A302B7002302B700A301B7002301B7004E
:10044000A300B7002300B700828093F5F50F9396C1
:100450008500D58D93960501D58D61B793962700BC
:100460009702000096968682E78086FA9680C117EA
:100470001D8F3E96E374C3F8A5B703A50182828061
:10048000EFF23FF2938701829843050798C3EF107C
:10049000E0183C49FD173CC989E77C453CC9EF1091
:1004A0008020EF10405505B7634205029307803E58
:1004B0003347F5023365F5023305F5021305753E42
:1004C0003345F5023307F7023A9582807D558280E5
:1004D00001458280014582800145828001458280FC
:1004E000EFF23FEC4964C9641304840893848409DF
:1004F00063639400C9BD1C4011048297D5BFEFF21D
:100500005FEA4964C964130484099384040C636337
:10051000940055BD1C4011048297D5BFEFF27FE8CF
:10052000F93FEF70F00445B5EFF2BFE7B705000003
:1005300037F50000D14729479306004001469385CF
:10054000C5511305C525EF10C00DEF10C029A5BD7D
:10055000EFF23FE5EF100068EF40A048EF00500CCD
:10056000EF10805DEF00F058C137EF10805D3D2443
:10057000EF00105B014581BDEFF2BFE2D13F0145C5
:1005800099B5EFF27FE0AA89EF10400919C1EF0099
:1005900050702545EF009041444113044500639697
:1005A0008400EF10A007014919A81389C4FE414631
:1005B000CE854A85EF00807301E9EF10200619C14E
:1005C000EF00D06E4A85DDBB8440D1BF09E57D5583
:1005D00082807D55CDBBEFF2DFDC2A842E85328907
:1005E000AE8445377DF522852686A545EF00B03ED1
:1005F0000145231024032302040223110402D9BF5E
:10060000EFF23FDA1E3141112A84C18B9DE71C595C
:100610008DC32EC68297AA84B24501CD2A8637F5AE
:100620000000A28513054526EF00E07826854101EC
:1006300059BB1E3093E707011EB01E30A18B89C73E
:100640003E30E554A18BFDF35C5899CF228582970B
:10065000AA8415E13E3093E787003EB08347440209
:1006600085072302F402D9B785679387F7F0FD8DDC
:100670002EB08144C5B7E957E31AF5FAE1BF8347C5
:1006800045028DCBEFF2FFD1FD1793F7F70F230251
:10069000F5022A84014789EF1C5D89E70147231190
:1006A000040239A082972A8775D9E957E309F5FE34
:1006B0003A8511BB7D573A858280EFF29FCE034782
:1006C000450209E77D55B129014521A05C5D99C32B
:1006D0008297D5B96955C5BFEFF2BFCC0347450234
:1006E00009E77D553D29014521A03C4199C38297E9
:1006F000D9B96955C5BF7C4189C7EFF29FCA8297B6
:10070000D9B1695582800CD501458280EFF2DFC7EF
:100710009389C187854A83A7C18763863705EF1010
:10072000604B83A7C1872A8A638D370303A4C187DF
:100730005C401840130944FE5CC398C340C000C02D
:10074000EF0030557C5499C34A8582974A85EF0063
:10075000D039631B55014A85EF00D02DEF001055AD
:100760005285EF10E04799B9EF0050545285EF10D1
:1007700020474848EF00F0184A85EF00F03361BF8A
:10078000EFF23FC21384C19A130904011C4091C3C4
:1007900082971104E31C24FF953FEDB7EFF27FC071
:1007A00037060000B7F50000930800027D48930764
:1007B00000201387C19B8146130606789385C529BF
:1007C0001385C191EF0070621385C191EF10A001F4
:1007D000DDBEEFF21FBD41112A842E8532C62EC424
:1007E000EF0090713246A24519C68547630DF600A9
:1007F00001454101C9BE58409387C5011CC398D12A
:100800005CC0C0CDF5B71C406388870083C6D503A4
:1008100003C7170263FAE600D4431387C50198C2E1
:1008200094D1D8C3DCCDE9B79C43F9BFEFF27FB7D1
:100830004111B2842E8689452A8436C6EF00B0194C
:10084000B2469307C4011CD05CCC46B014B8014535
:10085000410195BEEFF25FB383A7818641112EC699
:100860002A8491C38297EF10E0365E30AA8989CF3F
:10087000FD175EB0EF10C03683A74186014591CBCE
:1008800022858297014531A0B24791E7EF104035AC
:100890007955410125B6EF007058232C0502103818
:1008A000AA85AA841305C4012D37B247635CF00002
:1008B00013894405700081454A85EF1040104A8530
:1008C000EF1020024E85EF10A031EF003028885C39
:1008D00045D5C1B7EFF2FFAC83A701862A8491C347
:1008E0008297EF10202FAA84484C9307C401630E0F
:1008F000F5001115EF00706A05442685EF10402EB3
:1009000019C0EF00B02401457DBC5E3085075EB0A4
:100910000144E5B7EFF2FFA8B2842E868D452A8404
:10092000EF00700B9307C4011CD05CCCB707FF002D
:1009300085075CD02324040204B8014569B4EFF2B2
:10094000BFA441112EC62A84EF00504DAA84EF1097
:10095000602883A781862A8999C3228582971C549F
:1009600023AC040263829702938AD403130BC4015D
:10097000938944055D5A5E3085CBFD175EB004D483
:1009800083C7D4032303F402834774028507A303B8
:10099000F4024A85EF10C02483A74186014589CF20
:1009A00022858297014509A8B24791EBF9574A85FC
:1009B0009CDCEF10E022795541016FF03FA0085414
:1009C00003C7D4038347D5036376F700568689456A
:1009D000EF0030641038A6855A85E53BB247635A6C
:1009E000F000700081454E85EF00707D4E85EF0070
:1009F000506F4A85EF10C01EEF005015885C01C58E
:100A0000E30B45F755BFEF10E01C2A8959B7EFF209
:100A1000BF9741112A84EF007040AA84EF10801B19
:100A200083A70186AA8999C3228582971C54638B68
:100A30009700FD574E859CDCEF10801A7D554101D3
:100A40006FF0DF97834774020149FD1793F7F70FA3
:100A5000A303F402A9E30347640283C7D403630832
:100A6000F7001306640289452685EF00905A5C4C16
:100A70001307C401638CE702138547FE08D483C7BC
:100A8000170205492303F402834774028507A30371
:100A9000F402EF0090504E85EF1080140145E30002
:100AA00009FA2AC6EF00900A324551BF5E3023246E
:100AB0000402014985075EB0FD572303F402E1BF3C
:100AC000EFF23F8E4111EF10E0101387C1821C231B
:100AD000850793F7F70F1CA383A7418281C72AC616
:100AE00082973245EF10C00F41016FF0DF8DEFF2BA
:100AF0005F8B4111EF10000E1387C1821C23FD177D
:100B000093F7F70F1CA383A7818281C72AC6829718
:100B10003245EF10E00C41016FF0FF8A03C5C1823E
:100B20008280EFF21F882A84D53F09C523A88182DD
:100B30006FF07F89EF00902E75D900DDD5BF0D478E
:100B4000AA876376C7009377350091C7AA873E9638
:100B50006397C706828093F7F50F13978700D98FA5
:100B6000139707015D8FB308C500AA87BD46338878
:100B7000F84063EB060393574600C156B386D7028D
:100B80009207AA970D4836963383C700BE86B308EE
:100B9000D3406362180313572600F156B306D702F9
:100BA0000A07BA97369665B798C3D8C398C7C107DE
:100BB00023AEE7FE6DBF910623AEE6FEC9BF8507F3
:100BC000A38FB7FE71B73D47AA876377C700B367A6
:100BD000B5008D8BA5CBAA8701476315C708828016
:100BE00003A80700C1074107232807FF03A847FF01
:100BF000232A07FF03A887FF232C07FF03A8C7FFAB
:100C0000232E07FF3388F840E3EC06FD9356460099
:100C100013974600B307E500BA954157B386E6023D
:100C2000014736968D463308E64063C306031357E3
:100C3000260093162700B697B695F1563307D702CC
:100C40003A9659BFAE872A87B388C500BD465DBFB7
:100C50003388E500832808003388E7001107232044
:100C60001801D1B7B386E50003880600B386E70014
:100C700005072380060195B763F2A504B386C50076
:100C8000637ED5029345F6FF8147FD176393F50018
:100C900082803387F600030807003387C7002A974E
:100CA00023000701DDB73387F5008306070033070C
:100CB000F500850714A3E318F6FE82808147E5BF9F
:100CC0000DC6AA8785050387F5FF85079306F6FFFE
:100CD000A38FE7FE09EB3E9685076393C7008280EA
:100CE000A38F07FED5BF3686F1FE828001476314CD
:100CF000E600814739A8B307E50083860700B3877C
:100D0000E5009C23B387F640E207E18799E30507F6
:100D1000F9FE3E858280AA870387070001E73385B5
:100D2000A74082808507CDBF397136D6741006CEB4
:100D30003AD83EDA42DC46DE36C6EF206027F24083
:100D40002161828003A541838280EFF28FE503A9B0
:100D50004183EFF01F8311CD13844183AA8408409F
:100D600019C1EFF0DF91930530042685EFF05F891C
:100D700004C04A856FF02FE582800DCDEFF26FE25F
:100D8000138441830440411189E4FD3741016FF030
:100D90008FE303D924022AC693670904BEB0A53F96
:100DA0003246AA8681452685EFF01F931C40239189
:100DB0002703E9BF8280397126CA2ED232D436D6B3
:100DC0002A8654109305F0071385C1BB3EDA36C658
:100DD00006CE22CC3AD842DC46DEEF20601DAA8641
:100DE00003A5418309E91385C1BB7937F240624409
:100DF000D24421618280268626311384418393E781
:100E000004043EB19307F00763F4D7009306F0079C
:100E10001386C1BB8145EFF03F8C1C40A6B3F9B7E8
:100E2000EFF22FD837F500001305453A693737F54B
:100E300000001305053B413737F7000037F5000088
:100E40001307473D8D4605468D451305053EA537DD
:100E500037F5000013050540B93F6FF0CFD631C517
:100E6000BD661377F50F9386462A09C7BA9688227E
:100E700005058280C167938707F0E98F81CB2185C3
:100E80001377F50F3697082325058280B707FF00F3
:100E9000E98F81CB41859377F50FB6978823450578
:100EA00082806181369508216505828003A7C18310
:100EB0005C41BA976305F502B62395E283A6818368
:100EC000638FF6009386018490426313F60088C214
:100ED000D44354C1DC43B306E540BA9794C71045E8
:100EE000B307C700630FF500B62381EE9386018434
:100EF0008C426393A5009CC25441D4C35C413E978D
:100F000010C78280EFF2EFC983A5818437F5000016
:100F10001305C5424D3583A5418537F500001305FE
:100F20000544513D83A5418437F50000130545452F
:100F300059356FF04FC9EFF2CFC613F7C5FFE14641
:100F40002E8663F1E60693073500F19B930687FE34
:100F500063EAF6041D8F130687FE23A4C184896605
:100F600051171384C183938606EAD8C394C323A47C
:100F700007001CC0BA9723ACF182C966938606EAC3
:100F8000B7F5000094C3D8C398C78146054693853A
:100F9000C54E1385C1C3EFF07F89184023A0E184BB
:100FA0006FF06FC2AA8537F500001305454F213554
:100FB000C5BFEFF20FBF39C503A781841304350005
:100FC00071981389818481446366870EB147637386
:100FD000F4003144FD551385C1C3EFF0BF8783A7EB
:100FE000018483A5C1838328090026853386B74001
:100FF000B3868840138801846368D6001385C1C313
:10100000EFF05F8D81447DA0B384C500BA2003AEAC
:10101000440061E73307CE40930F47FF63EF8F0A29
:10102000138F4185938E41841303840183260F001F
:1010300083A30E00138941859382418463EF6F0679
:101040001307C4003297896E3383E500938E0EEA4E
:101050002322C3012324C3002320D3010546D8C083
:10106000B2A003264300B108630416012E9618C6E9
:101070001387C60022972320E90063F4E30023A02E
:10108000E2000967130707EA9AA0639A970083A60C
:1010900081830147B22305EE19C32320F80013858D
:1010A000C1C3EFF03F8383A70185B10481C7A28547
:1010B0002685829726856FF00FB105463697B2A038
:1010C0002320EF00E3FFE3FA23A0EE005DBFE385FA
:1010D000D7FCDC430547AE9775BF728631BFEFF290
:1010E0004FAC3306B5024111328532C6D9352A8458
:1010F00009C532468145EFF09FA4228541016FF07A
:101100008FAC45C5EFF24FA883A7C1842A8491C351
:10111000829783A7C1831389C1836366F40883A779
:1011200081836372F408FD551385C1C3EFF08FF21C
:10113000835764FF930944FF81CB035744FF8967BA
:10114000938707EA6301F70237F500001305054AA4
:101150009D31835644FF035664FF37F50000CE856A
:101160001305C54B89398967938707EA231AF4FE6B
:10117000938701849843231B04FE63F4E90023A0B2
:101180003701138741851C43832684FF4E85958F45
:1011900083260900B386D940B6971CC3013B13854B
:1011A000C1C3EFF02FF36FF06FA18280B70700206B
:1011B0009386070001479387070029468C42639670
:1011C000A500131547003E9582800507C106E31769
:1011D000C7FE01458280EFF22F9B2A842E85AE89BF
:1011E000328AE9372A897524832449009307490004
:1011F0006390F404652C93E909F82308340141460F
:10120000D2852285EFF0DFAB83A7818599C3228544
:101210008297EF00301C03274900930744015CC309
:1012200058C82322F90004CCEF00901B6FF00F99EF
:1012300084407DBFEFF2EF9683A7C1852A8491C3D6
:10124000829723080400EF00F0185448184C9307C5
:101250004401D8C214C31CCC5CC8EF0070186FF0F6
:101260008F96EFF26F922E89AA898937AA84484512
:1012700089332A841DCDD0448145EFF05F8C4146EF
:1012800023083401A3080400CA852285EFF05FA378
:1012900083A7818599C322858297EF00B013D84038
:1012A0009307440191045CC358C89CC004CCEF0070
:1012B000301322856FF08F90EFF2AF8E83A7C18538
:1012C0002A8491C3829723080400EF00B010544889
:1012D000184C93074401D8C214C31CCC5CC8EF005F
:1012E00030102285393D6FF00F8E030505017D8199
:1012F0008280239C0186938741C613870710DCC335
:101300009CC3A107E39DE7FE7D472386E18623A8D2
:10131000018623A201889387C187DCC39CC3828096
:10132000EFF22F8803A54188EFF07FB37D15931767
:101330003500138541C63E950841130745FE21053A
:1013400023A8E186EFE0DFE76FF0EF87EFF2CF83CE
:10135000EF00500883978187AA89C9E303A54188D4
:10136000EFF0FFAF7D1513173500938741C6BA978D
:101370008043938701878443130944FE63802407D5
:1013800023A0270183A741872386A18681C7CA8519
:10139000268582975C481307300294236399E60000
:1013A000184463F6E700144CBE9663FEE60237F578
:1013B0000000CA8513050553EFF0FF9FEF20E025DD
:1013C000EF00500101E183C7C182138544029305F8
:1013D000840093F7F70F85E7EFE05FE04E85EF00BD
:1013E00030006FE0BFFD93870702E3EEE7FC37F5BF
:1013F0000000CA851305C554EFF0FF9BE9B7EF0065
:10140000807EE9BFEFE2FFF92A84EF00A07C8347EA
:10141000C4039306C401C19B93E71700230EF40293
:101420008347D40313973700938741C6BA97D843AD
:1014300014C318D0D4C35CCC9387418894433840FC
:10144000558F98C3EF00C0796FE0FFF7EFE27FF5AB
:101450002A84EF0020781850544C9307C401D8C256
:1014600014C35CCC1CD08347D403139737009387F5
:1014700041C6BA979843631AF700138741883C40E6
:10148000144393C7F7FFF58F1CC3EF0060756FE03F
:101490009FF3EFE21FF1EF00E073938781879A23B8
:1014A00005079AA3EF00C0736FE0FFF1EFE27FEF53
:1014B000EF004072138781871E23FD17C207C18783
:1014C0001EA3634CF00023100700EF00607183A798
:1014D000018791C3A53D6FE01FEFEF006070E5BF8E
:1014E000EFE23FEC03A40187EF00C06EAA842285DF
:1014F000B13F9147230EF40213054405E1262285EE
:10150000ED338547631EF5008327840891EB228520
:10151000EFF05FD22685EF00A06C0D3D6FE0BFEAD3
:1015200083A6C1871307C40123AEE186D8C293877F
:10153000C18754CC1CD0F9BFEFE2BFE62A84710505
:10154000411108D048CC0CD450D414D83A8658D87D
:101550009305300236853EC642C4EFF04FDE585840
:1015600010584C5408547117B71600003A969386D9
:10157000064EEF00E060B24722483716000048D020
:10158000230FF402A30EF402232004048147232630
:10159000040523280405232C0402230E040223241B
:1015A0000408232604080147A2861306865CA28548
:1015B00013054405D92C83A7818899C32285829776
:1015C000014541016FE03FE0EFE2BFDD504D1451B6
:1015D000795718DD54C21307C50190C218D158CDF0
:1015E0001535EFF0BFD66FE01FDEEFE29FDB411154
:1015F000B2842E8685452A84368946C03AC63EC4C2
:1016000042C2EFF05FBD024892472247B2464A8687
:10161000A6852285153741016FE0FFDA03A5018712
:101620008280EFE27FD641112E89AA85054532C618
:10163000B684BA893E8AEFF0DFC22A8411C92685B2
:10164000EFF03F97324609E92285EFF0FFC60144EB
:10165000228541016FE09FD6AA865288CE872687D1
:10166000CA852285D13DEDB7EFE2BFD38347C503DD
:101670002A84BD8B99C3EFF07FDD130544059924BF
:101680009147230EF402B92383A6C1871307C4012F
:1016900023AEE186D8C29387C18754CC1CD089235E
:1016A00001456FE05FD2EFE2DFCF2D2383A70187F3
:1016B0000546AA8603C7C7033D8B631CC702D04FEC
:1016C00098536308E60258C210C303C6D703938633
:1016D000C7010E06138741C694D33297504314C2F4
:1016E00090D354C3D8CFED29EFF05FC601456FE02A
:1016F0009FCD3685F521DDBF8347C5030547BD8BEB
:10170000639FE702EFE2FFC92A84E9218347C4030C
:10171000AA842285C19B93E72700230EF402EFF0F1
:10172000FFD2130544059D2426855D2983A70189E1
:10173000014581C72285829701456FE0DFC87D554D
:101740008280EFE21FC641112AC6692103A40187E6
:101750002A892285553793044405700081452685E2
:10176000B92C2685BD2A4A85A529EFF03FBE185C15
:10177000F9576314F700232C0402014541016FE07F
:101780009FC4EFE21FC2753F6FE0FFC3EFE27FC16E
:10179000EFE09FD17D376FE01FC38347C503094743
:1017A000BD8B6390E704EFE2DFBF2A842521544C10
:1017B00018509307C401AA84D8C214C31CD05CCCAF
:1017C00013054405E122268521292285EFF09FC3D8
:1017D00083A7C188014581C72285829701456FE0B3
:1017E0009FBE7D558280EFE2DFBB8346E503054760
:1017F0003317D70038C10947A30ED502230EE502DF
:10180000693F83A7018799C3EFF05FB401456FE09B
:101810009FBBEFE27FB70549638D25058947638646
:10182000F500B1C501456FE07FB92A84B2895D2614
:101830008344C4032A8ABD88639224032285EFF07F
:10184000FFC083C709002285B394F400A30EF402FD
:1018500024C0EFF03FBB52856126E9B783C709007A
:101860003319F900A30EF40223202405EDB7A53F98
:101870005DBFEFF07FDF45BF544D18519307C501A1
:10188000D8C214C31CD15CCD8280EFE29FB141115C
:10189000B2842E86A9452A8436C63AC43EC2EFF0E9
:1018A0009F939247B2462247F99B1CB89307C40105
:1018B00044D014D42328040258D41CD05CCC410159
:1018C0006FE07FB0EFE2FFAD2A842926AA8422854B
:1018D0006537268531262285EFF0DF9501456FE0DB
:1018E0009FAEEFE21FAC2A84F524AA8422856937D3
:1018F0001C382685F99B1CB8E52483A7418699C32B
:1019000022858297EFE07FB75C543E9508D8D924B2
:101910001C38918BA5E39387818A03A8470037067B
:1019200000801346E6FF98436319F80493864189C3
:101930009042050690C29306C40154C358CC94C388
:101940001CD01C3893E717001CB8592C1C38918BFD
:1019500099CF938741D683C7C7030547BD8B63885B
:10196000E700138541D6EFF05FE3EFF03F9E0145BE
:101970006FE07FA5938781894DB7544B0C586385E1
:10198000B6008D8EE374D6FABA8771BF1C39858B89
:101990008DC7EFE21FA183A701862A8491C3829796
:1019A000152CAA842285EFF03FED2685152C1C38D6
:1019B0000145F99B1CB86FE01FA17D5582808547CA
:1019C0006381F50263C5B70085C1014582808947FF
:1019D000638FF5008D47E39AF5FE1C3993E72700E6
:1019E00009A85C551CC2D5B71C425CD5F9BF1C398F
:1019F000F59B1CB9D9BFEFE25F98EFE01FA82A8CD6
:101A0000D12AB70900802A8A9384818A93C9E9FF81
:101A10008D4B8040631694005285D9226FE07F99E8
:101A20004848130944FE3305AC40E3E7A9FE83A709
:101A3000018A99C34A8582974A85EFF0FFE31C44E7
:101A400048448297EFE07FA383A7418A2A8C99C3F9
:101A50004A858297834754FF13F7E70FA30AE4FEF2
:101A60008D8BE39877FB4A85EFF0BFE75DB7EFE238
:101A7000DF90EFE09FA0B70900802A8A93C9E9FFB1
:101A8000EFF03FA103A48189938481898D4B631674
:101A90009400EFF0BFA16FE0DF914848130944FEC6
:101AA0003305AA40E3E7A9FE83A7018A99C34A85C3
:101AB00082974A85032C0400EFF01FDCEFF01F9F94
:101AC0001C4448448297EFE05F9B83A7418A2A8A9F
:101AD00099C34A858297EFF0DF9B834754FF13F742
:101AE0003700F99BA30AF4FE631577014A85EFF0EE
:101AF0005FDF628469BFEFE23F893709008093842A
:101B00008189FD591349E9FF9C4063859700C04BCB
:101B1000631B3401EFF09FB0EFF01FBEEFF01F83A7
:101B2000EFF0FFF4D5B7EFE05F953305A440E3692C
:101B3000A9FEEFF01FC5EDB79387818ADCC39CC374
:101B40008280EFE21F869387818937260000B7F5F0
:101B50000000A9481148138741DF8146130666AF8C
:101B600093858558DCC39CC3138541D693070040F9
:101B7000EFF0BFA7138541D6EFF0FFC66FE0BF843B
:101B80001106719A2A8837C7ADDE130506F8AA87B1
:101B90001307F7EE631EF600A167938707882322D9
:101BA000D6F82324B6FA232006F92324F6F88280F7
:101BB00098C39107C5B737F700E01C43B70600800C
:101BC000D58F1CC3828037F700E01C4386078583CE
:101BD0001CC3828021651305058073150530828042
:101BE000731005308280EFE2CFFB1387818B18439F
:101BF0009387818B19E323A8A18A23AAB18A054779
:101C000098C3EFF05FFB6FE00FFCEFE28FF941113B
:101C10003AC63EC4EFF00F93A247324719E53A8522
:101C2000EFF08F9541016FE00FFA26312A843A8652
:101C300093E6040436B18145BE86EFE0FFA926B0E5
:101C4000D5B7EFE20FF6892AB7270000B7F50000F5
:101C50001387411F9387A7C00546938505591385B0
:101C6000411F5CCFED2B01456FE0EFF5EFE2EFF0A8
:101C70002A892E8BB28BB6893A8AEFE03FEA4DE192
:101C800093874122984321CBC05B39C0BD67931A2B
:101C9000290093878759BE9AB7FC0000130DCAFF2D
:101CA000832784FE63E327050328C4FF130C44FD48
:101CB00063150802832744FEB3E7FB0095EB03A5F9
:101CC0000A0029E14E87D287032804FF814635A008
:101CD0004E85EFF08F8A6FE0CFEDD2874E87DE869C
:101CE0005A86CA856285029871F5004055F8E5B7B5
:101CF000032804FFD2874E87DE865A86CA8562850E
:101D00000298E5B7EFF02F81AA844DDD13858C5B37
:101D1000EFF06F8026953387A900B307AD406DB70C
:101D2000D2874E87DE865A86CA850145EFF0FFEDE1
:101D30005DB7EFE20FE793844122D84011CF1384BF
:101D40004122EFE0BFDD19E9EFF05F8D01C9FD55DC
:101D500013858400EFE0BFBE6FE0EFE6EFF09FE792
:101D6000232EA40AD5BFEFE2CFE393844122D840CB
:101D700009CF13844122EFE07FDA11E9EFF01F8AE7
:101D800019C513858400EFE09FC86FE0CFE30325FA
:101D9000C40BEFF0FFE4D5BFEFE2AFE013844122C4
:101DA0001C4099EFB7F50000054693854563130580
:101DB0008400EFE03FB685475CC0232A04021CC0C4
:101DC00001456FE04FE0B2870D8D9306F007038762
:101DD000070001E73385C74082803388A500E3EB25
:101DE00006FF85058507A38FE5FED5B7014729487E
:101DF000A548B3F7050313061700B306C50093877C
:101E00000703A38FF6FEB3D7050363EDB800238065
:101E100006008147B306E500B305F74063E7B70066
:101E2000328582803287BE85E9B7B305F5008388A5
:101E3000060003880500850723801501238006011D
:101E4000FD16D9BFEFE26FD337290100AA8413052D
:101E50004997AE8CBE8B23AE018A328CB68A3A8B00
:101E6000EFE07FEBBD678A0C93878759E69703AA5B
:101E7000070023A0A18C138DC18B9389018C63076C
:101E80000A0203240D0037F600001306865BB385B3
:101E900084002285EFF03FF32A94B38584002285E5
:101EA0005286EFF05FF22A9423208D0003250D0067
:101EB0001307B005B387A40098A305053384A400D5
:101EC000EFE0AFDBAA852285EFF05FF283270D00FC
:101ED0001307D0053E95269518B1230105003385DB
:101EE000F400EFE05FE303240D0037260100130642
:101EF00006D22A94B38584002285EFF0DFECBD651D
:101F00009385C55BAE9C03A60C002A94B385840020
:101F10002285EFF05FEB2A94B385840062862285E8
:101F2000EFF07FEA2A9437F60000B38584001306A9
:101F300006602285EFF03FE9229513040008232074
:101F4000AD00B305A440DE865A862695EF10400604
:101F500083270D00AA976364F40063540500930778
:101F6000000883A609002320FD0013875600BA97B6
:101F7000130700086377F7009307B007958F2320B6
:101F8000FD00638E0A0003240D0013064997B385F4
:101F900084002285EFF03FE322952320AD0063000B
:101FA0000A0203240D0037F6000013064660B385CD
:101FB00084002285EFF03FE122952320AD00032528
:101FC0000D00AA94238004006FE0AFBEEFE2EFBAE9
:101FD000138441221C40A1C7BA8A368AB2892E894D
:101FE000AA84EFE0BFB3130B840319C1130B040CD5
:101FF0001384418CEFF0FFD3832B04008547639259
:10200000FB02D6855285EFE01FDB63987901372507
:10201000010013054597EFE01FDAEFF0DFD46FE022
:102020004FB91CC05287D687CE864A86A6855A8568
:10203000EFF05FE12A87DA860146CA852685EFF050
:10204000FFC223200400D1BF79713AD0181006CE08
:102050003ED242D446D63AC6EFF05FF7F240456131
:102060008280EFE20FB101112E8B328CB6892AC625
:10207000EFE07FCA2AC4EFE07FAA9387412213844E
:10208000070C19E113848703EFF0BFCAE28A014A03
:1020900001498144B7FD000063E73401EFF0BFCC94
:1020A00005616FE0CFB0639A04109307B005B30BDE
:1020B00024012380FB00130A1900EFE00FBC229AD1
:1020C000AA855285EFF09FD24A9522959307D005B5
:1020D0001CB1930700023CA1A30105005E85EFE05F
:1020E0009FC32A9937F60000B30524011306C66082
:1020F0002A8A4A85EFF03FCD32462A99B30524015A
:102100004A85EFF05FCC2A9937F60000B305240129
:102110004A8513060660EFF01FCB2A99B38B640142
:1021200037F600001387FBFFA6861306466193056A
:10213000000833052401EFE03FBF130D000863647E
:10214000AD00330D25010149B30CA40163126909E7
:1021500037F60000E6851306C6626A85EFF0BFC653
:102160003309AD00930CE0056391740DB7240100B1
:1021700013854497EFE03FBA4A95930C000863F843
:10218000AC0013854497EFE01FB93389AC40138648
:102190004497B30524014A85EFF0FFC22A99B3079B
:1021A0002401238007004A87A286054681451D45F4
:1021B000EFF0DFABDA9ADE84C5B5A24793050002E3
:1021C00022851389870052994A86EFE05F97B9B755
:1021D000B387240163F23705B3872A019423B7F745
:1021E000000013860762A1452808EFE0FFB36A8567
:1021F0003008E685EFF03FBD0509937779002A9D09
:10220000A1F7B7270100B305A4016A85138607D299
:10221000EFF07FBB2A9D0DBFB7F7000021469385E5
:1022200087622808EFE0DFA9D9B763F83403B30762
:102230009C009423938706FE63F4FC009306E0025F
:1022400013860D63A1452808EFE01FAEB3052401F6
:102250004A853008EFF03FB72A99850431B7EFE29D
:102260004F941C4D41112A8491C732C62EC48297C7
:102270003246A2459D475CC810C822854146EFE022
:102280003FA4EFF03F959306C402938781259843BE
:1022900011EB94C323260402EFF09F940145410102
:1022A0006FE06F92BA87E5B758459306170054C59B
:1022B00014496370D7021441AA8781CAEFE26F8E76
:1022C0002E85CC4382966FE00F901C45BA978CA365
:1022D00082808280EFE24F8B937737002A842E8BA7
:1022E000B284368A3A89832AC5008DC395E0137972
:1022F0002900631D09026FE06F8C9305000222859F
:10230000EFF09FFA8509E3EA49FFCDB7B289E5BF4F
:10231000FD14B3079B00838507002285EFF0DFF8EB
:10232000F1B7930500022285EFF01FF85C44B387F4
:102330005741E3E847FFC1B7EFE2AF837971BE8A47
:102340002AC6B3E7C500368A3A89428D4684A1EB96
:102350009397480163CE0702930700032308F10017
:1023600013F4F8FE8544937724002686C5EB937713
:10237000140063090D00DDC363150A001377C40060
:1023800011C37D1D2686130700029306000351A08A
:10239000C1478144E319F7FC13F4F8FEE9B793F75A
:1023A0000802AE8DB28B9309100699C393091004ED
:1023B000130B01018144814C254CD9194A86814671
:1023C0006E85DE85EF70E04D1377F50F6205618550
:1023D000634BAC0213070703620761874A86814695
:1023E0006E85DE8585042300EB00EF706012639438
:1023F0007C01E3EA2DF793070002050BE385F4F671
:10240000AA8DAE8B65BF4E97C1BF0C08B29594A143
:10241000050689C76374A601E319E6FE9307000267
:102420001307000329A01408B29698A20506637446
:102430005601E31AF6FEA1476315F90063F3C400E1
:102440003D988967C107E18FADC39317440163C409
:10245000070215C26384CA00631FCD0063F2C40C77
:102460007D1611CAC147630AF90A89476315F90243
:1024700063FDC4067D16C1476316F906937704020F
:10248000B1EBFD4763EFC7021C18B2971307800733
:102490002380E7FE0506FD4763E5C7021C18B297D7
:1024A000130700032380E7FE0506FD4763EBC70023
:1024B00063050A041C18B2971307D0022380E7FEB5
:1024C000050632450C082287EA86EFF0BFE0456139
:1024D0006FD0FFEDFD47E3E6C7FE1C18B297130768
:1024E00080057DB78947E318F9FAFD47E3EBC7FCA0
:1024F0001C18B2971307200661BF9377440091C759
:102500001C18B2971307B00255BF93778400D5DB30
:102510001C18B2971307000255B7E3EDC4F4B9BF16
:10252000C147E314F9F499BFEFD2BFE441119357C7
:10253000F6013EC0AA842E8DB289B68D89C7B70731
:102540000080B3C9C7006A85CE85EF904026BD667E
:102550009386866493973D00B69703AA070083AAE3
:1025600047002A8C2E89EF9040302A86AE866A85F5
:10257000CE85EF8050225286D686EF8040562A8B39
:10258000AE8BEF90C022AA8C2E84EF90002E2A866C
:10259000AE865A85DE85EF80102037F80000032BC9
:1025A0000864832B48642AC45A86DE862EC6EF80D0
:1025B000C03C37F8000042C22247B2476353A00A2A
:1025C00093861C0033B6960132943685A285B68C6C
:1025D000EF90A0292A86AE865285D685EF80C0442A
:1025E000634AA00093071C00B3B6870136993E8C5E
:1025F000814C0144639A0D046285CA85EF90E02600
:102600002A86AE866A85CE85EF80F01892472A8AA0
:10261000AE8A03AB076483AB47645A86DE86EF80DD
:10262000A040635A05005A86DE865285D685EF8023
:10263000C034635BA00093761C0099C693061C000F
:1026400033B686013299368C824723A0840123A2B7
:10265000240123A49401C0C49CA8268541016FD005
:102660001FD55A86DE863A85BE85EF80602A59F1ED
:10267000B3E68C0081C693F61C00ADDE93861C0089
:1026800033B696013294B68CB5B7EFD29FCEAA8BF3
:102690002E8CBA8C3E8DC68D864A96492644630799
:1026A000080C056793070701B3F7FA003289B6846F
:1026B000428B6397E7166344D000F1E669C629466A
:1026C00081464A85A685EF60B028C98D63970514B9
:1026D0004A85A68529468146EF60406A7D1B2A8986
:1026E000AE84F1BF294681464A85A685EF60502613
:1026F0001305050333844901A30FA4FEA6854A856B
:1027000029468146EF608067AE84C98D2A89130708
:102710001A00930710028DE11307000293060003CD
:10272000630FEA0013041A00B3874901631D6A03AB
:102730001307E00298A381A83A8AE315FAFA130472
:10274000000213F73A008547631DF708638B0D08F5
:1027500063950C0093F7CA0091C3FD1D9307000217
:102760001307000395A094A3228A5DBF93F70A0183
:1027700099CB93070002E304F4FCB38789001307A5
:10278000E00298A305049304000205A829468146A7
:102790005E85E285EF60D01B0504130505033389D0
:1027A0008900A30FA9FEE2855E8529468146EF6078
:1027B000E05C2E8CC98DAA8BC9D5E31994FC41B776
:1027C000B386890098A20504637DB401E31AF4FE80
:1027D0005687EE862286CE856A85EFF0BFAF6FD032
:1027E0001FBD93070002E305F4FE63890C00B38765
:1027F00089001307D00298A30504D9BF13F74A0034
:1028000011C7B38789001307B002F5B713F78A0021
:1028100061D3338789001CA3C5B7B3679900A5D7D7
:10282000130A140093071002229B01BFEFD27FB45A
:102830005D713E899357F6013ACC42D046D23ECEE6
:102840002A8DAE89B2843684814A89C7B707008051
:10285000B3C4C700014681464E85A685EF80400B74
:10286000630F0532B7F700001397C400318303A646
:10287000076E83A6476EB707F03FD98FBE854E859A
:10288000EF8060712A86AE862A8BAE8BEF80202582
:10289000B7F7000003A6876E83A6C76E2A8AAE8AA2
:1028A0005A85DE85EF80A023B7F7000003A6076FE7
:1028B00083A6476FEF708037B7F7000003A6876FD6
:1028C00083A6C76F2A8CAE8C5285D685EF802021D7
:1028D0002A86AE866285E685EF80E06B5286D686D4
:1028E0002A8CAE8C5A85DE85EF80601FB7F700001A
:1028F00003A6077083A64770EF80601E2A86AE8607
:102900006285E685EF7080322A8A13D544011375FB
:10291000F57F130515C0AE8AEF805062B7F700004F
:1029200003A6877083A6C770EF80601B2A86AE86D9
:102930005285D685EF70802F2A8AAE8AEF80905913
:102940002A8B014681465285D685EF800003635D60
:1029500005005A85EF80905E2A86AE865285D68520
:10296000EF70107B11C17D1B9307C0EC6309FB4A1C
:102970005A85EF80B05CB7F7000003A6077183A605
:1029800047712A8CAE8CEF808015B7F7000003A644
:10299000076483A64764EF7060292A8AAE8AEF80B5
:1029A0007053AA8B014681465285D685EF70F07C24
:1029B000635D05005E85EF8070582A86AE8652857D
:1029C000D685EF70F07411C1FD1BB7F7000003A6A8
:1029D000877183A6C7716285E685EF8040102A8AD9
:1029E0005E85AE8AEF809055B7F7000003A60772A8
:1029F00083A64772938BFB3FEF80600E2A86AE86DC
:102A00005285D685EF8020592A86AE86AE8C2A8CD8
:102A1000EF80E00C2A8AAE8AE6866286E6856285C9
:102A2000EF70C020B7F6000003A6867283A6C672B8
:102A30002AC82ECA5285D685EF705012B7F600000C
:102A400003A6067383A64673EF70401E2A86AE86E1
:102A50005285D685EF709010B7F6000003A68673F6
:102A600083A6C673EF70801C2A86AE865285D685F3
:102A7000EF70D00EAE8AB7F500002A8A03A5057460
:102A800083A54574E6866286EF80E0502A86AE868E
:102A90005285D685EF7080194247D2472A86AE8686
:102AA0003A85BE85EF70900BB7F7000003A68774D8
:102AB00083A6C774EF708017014793974B013A863E
:102AC000BE86EF80C001AA8CAE8D2A86AE864E856A
:102AD000A685EF7070756348053693061B011306D3
:102AE0002002814A6362D6029357FB4133C76701D4
:102AF0001D8F931737003D67130787643E97832C1C
:102B00000700832D4700854A9317390163D5072CA9
:102B1000A28611E0854671567D14014A6347CB00B9
:102B20006355DB0033046441054A635304000144E8
:102B30008566938606803369D90063540B006392DF
:102B40000A3263150A0063100B06014AF24781C777
:102B5000B7070080BD8CA286CE8526862818EFF0A8
:102B6000BF9C03478104E25B725C864C964D631800
:102B70000A1863478001631A0C00A54763F77701C1
:102B8000050B814C814D854B014C93073B06930609
:102B9000600C014A954A63E1F61A914A71AA814C88
:102BA000814D014B95B76686EE864E85A685EF7002
:102BB000E07A02C82DACEF80903FAA8B2E8CEF807C
:102BC000D04AC2472A86AE86A9C76686EE86EF70CF
:102BD000E0782A86AE864E85A685EF80C03B3D66AE
:102BE000C2479316340013068664B2962A8AAE8AC8
:102BF00083A90600C4429DC34E86A6866685EE85DF
:102C0000EF70F06D2A86AE865285D685EF70306DF6
:102C100089A86685EE85EF70906C65BF93D64D01EF
:102C200093F6F67F938616C013D6F641B18E33869F
:102C3000C64093D6440193F6F67F938616C093D58B
:102C4000F641AD8E8D8E63D5C60A4E86A686668504
:102C5000EE85EF70A0702A86AE865285D685EF701D
:102C6000E06F2A8AAE8AEF809034AE8DAA8CEF8016
:102C7000D03F2A86AE865285D685EF80C031B7F622
:102C8000000003AA066483AA46642ED65286D6861E
:102C90002AD4EF70904E1345F5FF7D812257B2572D
:102CA000AA9C33B5AC003308B5015286D6863A8566
:102CB000BE85C28D42C8EF70B045424801E593FC25
:102CC000ECFFC28D6685C285EF80303A2A86AE86DB
:102CD0004E85A685EF705055634AA00093871B0070
:102CE00033B777013A9CBE8B814C814D724751B509
:102CF0006686EE864E85A685EF70406621B79317EF
:102D00003901814A63DA0702FD576347FB025E859A
:102D1000E2853AC8EF80703593041B00BD67939637
:102D2000340093878764B6979043D443EF70503E46
:102D3000424719E17D14268B9374290081C4814890
:102D400063980A00E247814863F4FA00B388574168
:102D500092574AC022883EC482576686EE863EC29B
:102D60005E85EA87E2858329CD00EFF01F92631428
:102D70000A041379090293055004631409009305AA
:102D800050066A85EFF04FD21356FB41DA8563494E
:102D90006001B3056041B337B0003306C0401D8EFB
:102DA00095481388FAFF814729479356FB016A85A6
:102DB000EFF08FD889E861616FD06FDF9305000273
:102DC0006A85EFF06FCE8327CD006247B387374126
:102DD000E3E6E7FECDB7E3580BD6E3860AD6854790
:102DE0006686EE864E85A6853EC8EF70504FB306C8
:102DF000644113062013E350D6DCF24781C7B707BE
:102E00000080BD8D2E86A286AA852818EFF0CFF10E
:102E100003478104E25B725C864C964D99BB37FA9E
:102E2000000003268A6D8326CA6D4E85A685EF7045
:102E3000B03FB7F719789387278DBE8C832DCA6D65
:102E4000814AE35305CCB7F6000003A6067383A6B8
:102E500046736685EE85EF7060507D1BAA8CAE8D43
:102E6000ADB9E3150ACEA5BFEFD22FD1B2841D7143
:102E70002A8A2E8436892E862E85A686A685BA8A2B
:102E8000BE89C28BEF70D02811CDB7F500004E87F8
:102E9000D6860D469385C5775285EFF0AFC3256181
:102EA0006FD02FD1B7F7000003A6077583A647752B
:102EB0002285A685EF705037635A0500B7F50000EC
:102EC0004E87D686114693850578F9B7B7F7000087
:102ED00003A6877583A6C7752285A685EF70F0299E
:102EE0006353A00293F7490089CBB7F5000093859F
:102EF000457711464E87D68645B7B7F500009385CE
:102F000005770D46C5BF130B010463950B04B7F796
:102F1000000003A6077683A647762285A685EF7074
:102F2000D025634EA000B7F7000003A6877683A6DE
:102F3000C7762285A685EF70302F635D0500814836
:102F40005A88CE875687CA86A28526865285EFF094
:102F5000FF8DB1B79397490163DA07048148C547EC
:102F6000130700039306000263F9270133061B01D0
:102F700018A285087D19E399D8FEE3930BFCCA8655
:102F8000A2852686281046CEEFF00FDAF2480347D6
:102F900081034256D2562255B25546C45AC24EC03B
:102FA000D6884A88D287EFF04FEED5BD19497DB754
:102FB000EFD22FBC7971368463D60500B705008047
:102FC00093C5F5FF11E18145056B416AB70A0080A1
:102FD00002CE02D02AD202D42ED693090B807D1ABB
:102FE00093CAFAFF37FC00008305060099CD9307CA
:102FF0005002130916006387F5006808EFF0CFAAA6
:10300000A28CE5AE830716009DE3F24789EFB25626
:1030100099CA925789CB22576364D7001387F6FF6A
:10302000BA9723800700225545616FD04FB881477A
:103030009306B0029305D0021305000313080002A3
:103040009308300201A8630EB7026311A70293E749
:103050001700328903070900130619006306D70217
:10306000E3C3E6FE6305070363061703930607FD44
:1030700093F6F60FA54563EAD506814D2546294509
:103080001DA093E72700F1B793E74700D9B793E76F
:103090008700C1B793E707016DBFB38DAD022E89DD
:1030A000938D0DFDB69D83060900930519001387C6
:1030B00006FD1377F70FE372E6FE83060900130798
:1030C000E002639CE60E83061900B3E7370195DE44
:1030D000138606FD1376F60FA5451307190063EB5B
:1030E000C50A8144A54529482DA89306A002814D13
:1030F000E315D7FC832D04001307440063D60D00AD
:1031000093E72700B30DB04183061900E38F06EE65
:103110003A8432895DB7B38404032A87938404FD1B
:10312000B2940306070013051700930606FD93F6F5
:10313000F60FE3F2D5FE830607001306C006130957
:103140001700638AC608634DD6061306800663859A
:10315000C60A1306A006638DC60A3A8983050900CC
:10316000130750060509638DE528634EB71413074E
:1031700070046387E5286342B70A1307500463812C
:10318000E528634AB72493075002E398F5E69305D0
:103190005002A5B51306A0028144E39EC6F8044080
:1031A0009306440063D304008144030629001307F7
:1031B0002900E30C06E43684BDBF4A878144A5BFDD
:1031C000130640076386C6001306A007E397C6F8F8
:1031D00093E7072081A003061700E30806E26305D2
:1031E000D60093E707209DBF93E7076013092700E8
:1031F0000307270025F711BD03061700E30706E0C4
:103200006305D60093E7070891BF93E7070CF9BF62
:1032100093E7074003071700F1BF130720066388F1
:10322000E500634BB70813078005E398E5DC130757
:1032300040066386E500130790066394E500116776
:10324000D98F9306800741476382D5021307800513
:10325000638AE52E9306F00621476389D50093061D
:10326000200609476384D500BD9B2947B3F6370183
:1032700091C2F99B1396170193F607406355061008
:10328000DDCE1D04619854401040BE8813D5F64130
:10329000298E3348D500B305A6403336B600330532
:1032A000A840930C84006E88A687FD823306C54033
:1032B0006808EFF06F8891A2130730066387E51660
:1032C000130740069DB71307F006E382E5F6634A4D
:1032D000B702130770066385E51263CEE50E130788
:1032E0009006E386E5F41307E006E398E5D013F7CC
:1032F000070414402256930C44006303072290A253
:10330000EDA8130730076385E5166343B70213077B
:103310000007E394E5CE0C40096705075D8F930C29
:103320004400639A051EA946154693050C79A1AA87
:1033300013075007E38DE5EE13078007FDB593F6FD
:103340000720930C44009DC2144013D6F641B68565
:103350006349D000B305D0403335B0003306C040D8
:10336000098EBE886E88A687FD8299B713F607047A
:10337000144001C6E206E186C9BF13F6070871D6FC
:10338000C206C186D9B793F837FF99CA1D04619860
:10339000930C84006E88A68781460C40504009BF7C
:1033A00093F60720930C440099C60C406E88A687BC
:1033B00081460146F5BD93F607040C4099C693F586
:1033C000F50F6E88A6878146EDB793F70708F5DB02
:1033D000B3F54501FDB7130760046394E50093E777
:1033E00007021D046198930C840001480C40504072
:1033F0006E87A6866808EFF03FA766844A86EDB61A
:1034000013F7F5FD930670046315D700B3E7670162
:10341000F599130750046394E50093E707021D0430
:103420006198930C84000548D1B713FD27008544AB
:10343000631E0D00854739A0930500026808EFE080
:10344000BFE6A68793841700E3E8B7FF830504006F
:103450006808930C4400EFE03FE5E3000DFAE3FE5B
:10346000B4F9930500026808EFE01FE48504C5BFC6
:103470001440930C440081EE3E87B7F70000EE86BF
:103480001946938587786808EFE0DFE4BDB72687A3
:1034900091E056873386E60036878305070099C199
:1034A0006315C70233FD3701B30BD74063050D0029
:1034B00063F37401A68B13F4270011E493871B00B8
:1034C00063E7BB01BE8BB6942DA00507F9B7930542
:1034D000000268083EC636C4EFE01FDDB247A246D0
:1034E000BE8BE9BF8506680836C436C6EFE0DFDB71
:1034F000A2468385060089C5E3060DFEE39496FE89
:10350000E30D04EEE3FBBBEF930500026808EFE078
:10351000BFD9850BC5BFBA882948A687414765B57D
:1035200013F7070819C392A2C9BD13F7072019C3DF
:1035300090C2E1B593F7074090C2E38007EC23A265
:10354000060065BD93E7070241470DB32A8781470F
:1035500018436314A7003E8582808507D5BFB7074F
:10356000EFBE37E700E0938707083CC7014582803C
:10357000EFC23FE337F5000013058579EFD0BF8335
:1035800001456FC05FE4EFC2DFE12A84FD543709D3
:1035900001007D14631494006FC0FFE21305490B12
:1035A000EFD07F81FDB7EFC23FDE0041AA8437092B
:1035B0000100B7190100631494006FC03FE0930548
:1035C00044FE1305890BEFD00FFF1C406386970064
:1035D000138589E5EFD02FFE0040F1BFEFC27FDCFD
:1035E0002E89EFD04FF32A84EFD0BFEA832409005D
:1035F000639C2401EFD09FEBC14763C3870011E0B8
:10360000414422856FC03FDC1385C4FEEFD0AFF08C
:103610006353A4002A848440E1BFEFC21FD605454E
:10362000EFD0DFB8B7290100130945002A84CA8505
:1036300013850991EFF09FFAAA85AA843705010046
:1036400013860991130585B5EFD0EFF62685EFF0C7
:103650009FF3370501001305C5B9EFD0CFF5404002
:10366000B7090100054A894A370B0100B70B010071
:10367000370C0100B70C0100370D010063158900FC
:1036800001456FC01FD3034794021385C9BD93063C
:10369000C4FE4146A685EFD00FF28347840213850E
:1036A0008CBEBD8B638E470113054CBF638A5701E7
:1036B00013850BC091C711476396E7001305CBC074
:1036C000EFD06FEF4C4C93073002AE869822630622
:1036D000F7021050930740060848B295B386D540CC
:1036E000B386F602585C5C50898D13058DC1B3D644
:1036F000C602EFD04FEC004051B78506C1BFEFC204
:10370000BFC841110945EFD07FAA93094500370989
:1037100001002A84CE85130589AFEFF03FECAA851E
:10372000AA8437050100130689AF130545B0EFD011
:103730008FE82685EFF03FE537050100130505B258
:10374000EFD06FE74040370A0100B70A0100371B8E
:10375000010063968900014541016FC03FC61A28E8
:103760001C449306C4FE1309840036C63AC44A8535
:103770006306F902EFF09FDD2247B246AA87414671
:10378000A68513858AB3EFD00FE34A85EFF0BFE13A
:1037900013050B5BEFD02FE2004065BFEFF01FDB9E
:1037A0002247B246AA874146A68513058AB4EFD0C0
:1037B0008FE0DDB7EFC25FBD41111145EFD01F9F14
:1037C00093094500370901002A84CE851305098332
:1037D000EFF0DFE0AA85AA8437050100130609830C
:1037E00013058583EFD02FDD2685EFF0DFD9370570
:1037F00001001305C585EFD00FDC4040370A0100FA
:10380000B70A0100371B0100639689000145410199
:103810006FC0DFBA1C44130984009306C4FE184825
:103820006309F9024A8536C63AC4EFF03FD222470F
:10383000B246AA874146A6851385CA87EFD0AFD77F
:103840004A85EFF05FD613050B5BEFD0CFD6004073
:1038500065BF4146A68513054A89EFD0CFD5C5BFC0
:10386000EFC29FB241110D45EFD05F94B70901003F
:10387000130945002A84CA85138549A9EFF01FD68C
:10388000AA85AA8437050100138649A91305C5A98D
:10389000EFD06FD22685EFF01FCF3705010013055B
:1038A00005ACEFD04FD14040B70901006316890045
:1038B000014541016FC09FB09306C4FE130584000B
:1038C00036C6EFF0BFC8034834015C48B246AA8848
:1038D00041474146A685138509AEEFD0CFCD0040C4
:1038E000F1B7EFC27FAA41111545EFD03F8C930984
:1038F0004500370901002A84CE851305898AEFF037
:10390000FFCDAA85AA84370501001306898A13050D
:10391000058BEFD04FCA2685EFF0FFC637050100B3
:103920001305458DEFD02FC94040370A0100B70A73
:103930000100371B010063968900014541016FC0FA
:10394000FFA77A285E2810449306C4FE130984005A
:1039500036C63AC43EC24A856307C902EFF01FBFAC
:1039600092472247B2462A884146A68513850A8F88
:10397000EFD06FC44A85EFF01FC313050B5BEFD088
:103980008FC300404DBFEFF07FBC92472247B24645
:103990002A884146A68513058A90EFD0CFC1D5B7B6
:1039A000EFC29F9E41111945EFD05F8093094500FA
:1039B000370901002A84CE851305C9A2EFF01FC282
:1039C000AA85AA84370501001306C9A2130585A399
:1039D000EFD06FBE2685EFF01FBB37050100130542
:1039E00045A5EFD04FBD4040370A0100B70A01009E
:1039F000371B010063968900014541016FC01F9C80
:103A00001A2C1C449306C4FE1309840036C63AC41B
:103A10004A856306F902EFF07FB32247B246AA87D0
:103A20004146A6851385CAA6EFD0EFB84A85EFF0C8
:103A30009FB713050B5BEFD00FB8004065BFEFF0E9
:103A4000FFB02247B246AA874146A68513050AA8B9
:103A5000EFD06FB6DDB7EFC23F931D45EFD00FF546
:103A6000B7090100130945002A84CA851385099204
:103A7000EFF0DFB6AA85AA84370501001386099204
:103A800013058592EFD02FB32685EFF0DFAF370512
:103A9000010013058595EFD00FB24040B709010032
:103AA0006315890001456FC07F91032804015C48BC
:103AB00058449306C4FE4146A68513854998EFD025
:103AC0008FAF0040F1BFEFC23F8C2145EFD00FEE2A
:103AD000B7090100130945002A84CA851385099A8C
:103AE000EFF0DFAFAA85AA84370501001386099A93
:103AF0001305859AEFD02FAC2685EFF0DFA83705A8
:103B000001001305059DEFD00FAB4040B709010040
:103B1000370A0100B71A01006315890001456FC01B
:103B2000FF89832884029306C4FE18481C4C03288E
:103B3000C401638208024146A68513054A9FEFD05F
:103B40008FA713050402EFF01FA613850A5BEFD0C1
:103B50008FA60040D1B781484146A685138509A1AB
:103B6000EFD06FA5FDB7EFC23F825D712545EFD065
:103B7000EFE3BD65130600052A841309450093850C
:103B8000C5200A85EF806050B7F90000CA8513850B
:103B9000897CEFF0BFA4AA85AA8437F500001386BC
:103BA000897C1305057DEFD00FA12685EFF0BF9D21
:103BB00037F500001305857FEFD0EF9F4040D149D6
:103BC000370A010063168900014561616FC00FFF6C
:103BD0001C449306C4FE63E0F90298088A07BA976A
:103BE00003A707FB1C284146A6851305CA81EFD011
:103BF0008F9C0040C1BF4647F5B7EFC2EFF829459B
:103C0000EFD0CFDAB7F90000130945002A84CA853E
:103C100013858958EFF09F9CAA85AA843705010077
:103C200013868958130505C4EFD0EF982685EFF069
:103C30009F9537050100130585C6EFD0CF9740400B
:103C4000B7090100370A0100B70A0100631E8900A5
:103C5000EFC0BF82AA8537050100130505CCEFD060
:103C60008F9501456FC08FF55C4C184C1385C9C802
:103C70009306C4FE4146A685EFD0EF938347D4FF59
:103C800013854ACA858B99E313050ACBEFD0AF920F
:103C900000406DBFEFC24FEF37F500001305057A06
:103CA000EFD06F9103A4C18CB7F9000037FA000080
:103CB00083A7018D6365F40001456FC02FF00440B8
:103CC00009469385497B2685EF80903319C550407E
:103CD000A68513058A7BEFD00F8E3104D1BFEFC2CA
:103CE000AFEA3705010013054521EFD0CF8C03A4BF
:103CF000C18CB7090100370A010083A7018D636BEE
:103D0000F400371501001305055BEFD0CF8A01459C
:103D10006FC0CFEA04401946938509232685EF80BA
:103D2000302E01E950409385640013058A23EFD0BB
:103D30008F883104D9B705458280EFC2EFE47971ED
:103D40002A84AA9593060002254783070400B384BA
:103D500085406385D70A6383E70A0145638B0410B6
:103D6000014913070002A546B30724018387070012
:103D7000638AE7086388D7086314990883A9C18C0C
:103D800083AA018D370B010063F0590903AA0900CA
:103D9000194693050B235285EF80902659E54A86F4
:103DA000A28513056A00EF80B02541E14A9A830796
:103DB0006A00A5EF83A989006388090413068002BD
:103DC00081452800EFC0EFE013098100CA86A28771
:103DD0000145014713080002A548294313062002A4
:103DE000130EC005838507006384050163961505DE
:103DF000631F9702A9476303F50469A80504B1B7D7
:103E000005099DB7E31C09F6A2870387070013770E
:103E1000F7FD79E7370501001305C51F238007006B
:103E2000A285EFC05FF97D55A9A0B109B1BF23807C
:103E30000700050785077DB7631065043705010096
:103E40001305851DEFC03FF70018B7040100832557
:103E500009001385841F1109EFC0FFF5E31989FEDE
:103E6000371501001305055BEFC0FFF429452C0051
:103E7000829945616FC08FD4637E97000505639278
:103E8000C504850705079CC2838507006381C502B9
:103E90006364970069FD8DBF838E17006396C5012B
:103EA0006394CE008507050785070507F1BFE37317
:103EB00097FE23800700050785079106E36497F2C4
:103EC000D1BF9CC283850700638905016387150103
:103ED000E30297FC85070507F5B7E36097FE5DBF32
:103EE000850725B7EFC26FC98307050099E78145AC
:103EF0000145EFF0DFDE6FC0CFCB03AAC18CAA89EA
:103F000081440149370B0100B70B010083A7018DE4
:103F10006369FA00EDD04A86A6854E85EFC05FDA68
:103F2000D9BF03240A00194693050B232285EF808D
:103F3000300D21E14E85EF80900B19042A86A28571
:103F40004E85EF80F00B15E5631709002285EF80A1
:103F5000100A2A89A284A68722870386070001EE19
:103F6000858F63D327013E89A28513850B24EFC07B
:103F70009FE4310A61BF83060700FDD2E312D6FE3B
:103F800085070507D9BFEFC2CFC1EFF00FE90145A3
:103F90006FC06FC3EFC2EFC0EFC0DFF601456FC067
:103FA0008FC2EFC20FC003A5818CEFC0BF92014545
:103FB0006FC06FC1EFC2EFBEB72701009387C7E59F
:103FC00023A6F18CB72701009387470823A8F18C1B
:103FD000B72701009387470823AAF18CB727010070
:103FE0009387470893058021054523ACF18C138402
:103FF000818CEFD0CF8E08C019E937050100130579
:10400000452FEFC05FDB7D5422856FC0CFBBB74526
:10401000000037050100A9470D47930600400146FF
:10402000938545131305C530EFD0AFDFAA84084050
:10403000B70501008146014693854531EFC00FFF6A
:104040000144F9D02685EFD00FFA7DBFEFC26FB5DE
:10405000EFF07FCE0DC5B70501009385052C1385C4
:104060008136EF80C077B70501009385052D138554
:104070008136EF806073138581366FC0CFB4B7058A
:1040800001009385852CE1BFEFC2AFB12A843705CB
:1040900001001305C532EFC01FD2EFF03FFBAA8528
:1040A000370501001306241C13054533EFC0BFD0AC
:1040B00001456FC04FB1EFC2CFAE41112AC6EFC06C
:1040C0004FCCB24511E9370501001305452DEFC06E
:1040D0009FCE41016FC02FAF83A7818CAA84138428
:1040E000818C83A74721E386A7FE93053014EFC098
:1040F0002FD165F11C4003A5472109C9EFC02FD876
:104100001C40814503A54721EFC0EFDF00401306A7
:10411000000581451305241CEFC0AFABB745000077
:1041200023190420232A9420938525FA2685EFC09D
:104130008FDD45B7EFC2EFA383A7818C4111938434
:10414000818C03C7C702136717002386E70283A782
:10415000472191E7EFC01FBF19C1EFF0DFF5EFF086
:10416000FFEEEFC05FC5370B0100B70B0100B709C9
:104170000100371A0100B7FA0000370C0100B70C34
:1041800001009C4085461306F10003A54721FD551B
:10419000EFC0AFD28547631AF5000309F100ED4780
:1041A00080406319F90008D4E9BF8840FD55EFC08D
:1041B0006FEAC1BF1C546392A7029307B005631551
:1041C000F90089471CD475BF23240402E30B09FAC4
:1041D000A5476314F9120149D1A80947E398E7FEFE
:1041E00023240402930710046312F9046E34D1D916
:1041F000FD15C205C1816EB49307241C1307000589
:10420000B385E502130600053E8593852503A29537
:10421000EF70B067EF80A05D1375F50F2309A42040
:10422000A309A4202285EFF03FE6A1BF9307200455
:104230006311F90216387E341387F6FF63D8E7005E
:1042400085077EB49307241C6E344DBF9DDA7AB483
:10425000D5BF930740046310F9028347342195D3F7
:104260001385C931EFC03FB5984083473721FD170B
:10427000A309F72039B793073004E319F9F483470A
:10428000342103472421E3FEE7EE3E948305241CFA
:1042900013850A63EFC03FB29840834737218507F3
:1042A000C1BF1385C931EFC01FB1050980408347E5
:1042B0003421E348F9FE13050A5BEFC0DFAFEFF0EE
:1042C0009FA785471304241C6315F5002285EFF092
:1042D0007FC1EFF0BFD72286AA8513854C33EFC08C
:1042E0009FAD80401305241CEF8060501375F50FBF
:1042F0002309A420A309A42069B59307F007630547
:10430000F900A1476315F90883473421E38B07E6D9
:1043100003462421FD1793F7F70F7D161376F60F4A
:104320002309C420A309F42063F8C7049385371C2C
:104330001385271C1D8EA2952295EFC0FF939C40EC
:1043400013850B3203C727213E972301071C83C522
:1043500037219385251CBE95EFC0FFA59C4003C463
:1043600037219C4083C72721E3CD87E01385C931DE
:10437000EFC07FA40504F5B713058B32EFC0BFA3D0
:104380009C4003C72721BA972381071CDDBB354713
:10439000834724216305E9002947631EE90EB9CB51
:1043A000035904039147130D241C63FB2709930D44
:1043B000241713060005EA856E85EF70D04A1DC9E3
:1043C000130924034A851309090513060005CA8544
:1043D000EF70B04BE3982DFF1306000581456E8505
:1043E000EFB03FFF03462421EA856E85EF70F04968
:1043F00095471EB81E387EB4EFF0FF9385476312D1
:10440000F5029C4083C7C702858B89C713050A5BE9
:10441000EFC07F9A8840834525211305251CEFF0C6
:10442000DF91EFF0BFC2EFC01F9980401306000577
:1044300081451305241CEFB0DFF92319042091B343
:10444000630109021305F9FF930700053305F5021F
:1044500013060005EA85130525032295EF70B04089
:1044600051D9930D00053305B903130600058145A5
:10447000130525032295EFB0DFF50A380346242102
:10448000EA853305B503130525032295EF70F03F48
:104490001E388507B9BF1307F0046374F7002309BA
:1044A000042003463421834724216370F6089305D2
:1044B000261C1305361CA2953386C7402295EFC0F3
:1044C000AFFB8C4083C735213387F5002301271DBF
:1044D00003C7C502058B01CB9387271CBE95130527
:1044E0008C0BEFC05F8D9C4003C437219C4083C779
:1044F00027216346F40298408347272183463721CA
:104500008507850693F7F70FA309D7202309F7201E
:104510009306F004E3F7F6C6231907209DB113852F
:10452000C931EFC05F890504D1B7A2972381271D48
:104530008347C402858BE1D3CA8513850A63EFC024
:104540009F8755BF7C45232C0504232E05049C43DF
:1045500081CBEFB21FE59305050582976FB0BFE6EB
:1045600001458280EFB25FE236899DCAAA84328417
:10457000B309D600294A1C20639B4701BE3093F73C
:10458000070491C7FC44B54526859C478297FC44A7
:104590008305040026859C4705048297E31D34FDAE
:1045A0004A856FB0BFE1EFB2DFDFAE87AE84B706FA
:1045B0000100B70501002A872A849386C633054681
:1045C000938505371D45EFD03FA893F7041091C799
:1045D0001A306155137707103DCF13F7044011C708
:1045E0001A306155137707403DC713F704041309C8
:1045F000000409E70359240213790904384C93F4A1
:10460000F40F26B039EBB1C36848298142054181D6
:104610003105EFC01F9A7048AA84310529824206ED
:104620004182814588C0EFC08FD123A204003E3073
:1046300023A4040024CC93E707103EB07C44130667
:104640000010C145DC43228582973E300145336925
:10465000F900231124036FB01FD7E5DB93E40410A6
:1046600026B0E5B70948AA8763810503EFB27FD377
:104670000D48638205030547639AE5041A311377F1
:10468000F7FD1AB101456FB01FD41A311367070245
:104690001AB101458280328775D6504274498345EC
:1046A00045022982A9824206C2064182C182630470
:1046B000D6001D45E9F91443B4CB5443F4CBF9D1EA
:1046C000F447BA853E85944282966DBF7C45DC43B3
:1046D000829755BFEFB25FCB3684B1CA3E31AA890B
:1046E000328993F70710B6849DE37D5AA94A83A7C0
:1046F000C9044E85DC478297630945012300A90060
:10470000FD14050963035501FDF0058C0DA0244D32
:10471000368A854AEFD00FCCFE20DA202A869444D0
:10472000631AF70081EAEFD0AFCB3304444122850E
:104730006FB0DFC898403E97034B070003A74905B9
:104740008507C2072983C1834207FEA0418363E432
:10475000E700239304006394560123A404003285E8
:10476000EFD00FC87D1A230069010509E3140AFA86
:104770006DBF03474502854763ECE7023E3193F77F
:1047800007109DC7EFB2FFC12A84284DEFC07F9765
:104790003E30232C04041306001093F7F7EF3EB0CD
:1047A0007C44C5452285DC43829701456FB0BFC17B
:1047B00001458280EFB2FFBE374700001307475420
:1047C00018D9374700001307675A58D937470000F0
:1047D0001307277718DD374700001307476D58DDAB
:1047E000374700001307475638C137470000130703
:1047F0004766420678C134C54182232E0500232432
:10480000050223260502EFB07FDC6FB0DFBB93F516
:10481000F50F85476391F50AEFB21FB7204D41119F
:10482000AA847D598549FC442685DC4782972A8ADB
:1048300063072505EFD00FBA5A201C40BA97238092
:1048400047015E20F8488507C2072983C1834207D4
:104850005EA0418363E4E7002312040076205E201B
:10486000639CD7008507C207C1837EA0232434013F
:1048700063E4E70023130400EFD08FB66DB79C54B8
:1048800085C3EFD02FB55A206E20636EB700B305F5
:10489000B7402EC6EFD0CFB49C54B2452685829740
:1048A00041016FB0BFB1FC48998DA983C207C18394
:1048B000B385B740F9BF828001CEEFB29FAE784595
:1048C000B2878E2318433222029701456FB0BFAFE3
:1048D0007D558280EFB2FFAC1387C13E78472E86AC
:1048E000AA8518431385C13E02976FB0DFADEFB2C2
:1048F0005FAB1387C13E78472E86AA855843138540
:10490000C13E02976FB03FACEFB2BFA91387C13E63
:104910007847AA851385C13E184702976FB0BFAA92
:1049200005C611476392E602EFB2BFA77C450E228F
:1049300041119C4736C632C482972246B2462AA20B
:10494000368541016FB03FA88146368582801DC201
:10495000B28711466390C602EFB2BFA47845B22376
:104960008E235843411136C60297B246410136851F
:104970006FB07FA5814636858280EFB29FA2938774
:10498000C13E4947D8CF3757000013070792D8DFF9
:10499000375700001307E794B8C3375700001307D1
:1049A000878BECC7B0C7AA850D461385C13E23A4EB
:1049B000070223A6070223A8070223AA070223ACA3
:1049C0000702F8C3EFB09FC001456FB0DF9F3735D6
:1049D0000020130545D4828037F50020130505001B
:1049E0008280EFB21F9C0945EF303064B70700208A
:1049F00003A7073D9307803EC1563357F702B7E739
:104A000000E02386D7402387D740856623A0D710B0
:104A1000916623A0D710B7F700E023A0070023A2D8
:104A20000700014690C78146D4C781461306F7FFA9
:104A300090CBD4CB7D4798C3EFF07FF92A84EFF079
:104A4000BFF9AA852285EFC00FCFEF00B029370547
:104A500001001305853EEFC04FAFA520EFB05FA862
:104A60006FB07F9673110134EFC08F85B7F700E008
:104A700023A20700EFB0DFA0EFC06F8773110134EE
:104A8000730020309307F00463EDA700B147B3072C
:104A9000F5024165130585483E951841FD5763139E
:104AA000F70001458280814785461307000233964F
:104AB000F6006306A6008507E39BE7FEFD573E85EB
:104AC0008280EFB21F8E85451305D007EF30307519
:104AD000C1653715010001469385053F130585849F
:104AE000EFF0BFE96FB03F8EEFB2BF8B13F5F50F5C
:104AF000EFF05FF919471DC90845EFF0DFFABD4730
:104B00002A84194763E4A702EFD0CF8CB14733045E
:104B1000F402B70700209387070A7D57A297839670
:104B200007006398E600EFD0AF8B01473A856FB07E
:104B30009F8941677D1798C323A2070023A407001C
:104B4000DDB7EFB27F8413F5F50FAE84B289368AF4
:104B50003A89EFF03FF3994731CD0845EFF0BFF4C4
:104B60003D472A8499476367A704EFD0AF86B146D3
:104B7000B306D402B70700201387070A2A86938753
:104B8000070A369783160700639F96004C43639C81
:104B900045012E2363993501184763162701EFD08D
:104BA0002F84814701A87D576389E6003285EFD0C5
:104BB0002F839D473E856FB07F8031453305A4022A
:104BC0003E9506A123224501231135012324250109
:104BD0003285F1B7EFB2EFFC011113F5F50F32C6D4
:104BE00002CA02CC02CEEFF0FFE915C11C453246E5
:104BF000FC82C1473ECE8D473ECC11C60547631BA4
:104C0000E60091473ECE48414C08EF30302E05611A
:104C10006FB06FFB09476315E60093078004DDB7AB
:104C20006315F60093078002F1BF9147E31DF6FC80
:104C3000D147C9BFEFB24FF5011113F5F50FB28996
:104C400002C202C402C602C802CA02CC02CEEFF0FF
:104C50007FE3AA8419459DCC054463938910884459
:104C6000EFF07FE42A84BD47194563E58702EFC072
:104C70007FF63147B306E402B70700209387070A9F
:104C80002A89B69703960700FD566318D600EFC031
:104C90003FF5194505616FB06FF29444BE230D4690
:104CA000748232C436C802CA4ECE6382370BD1CB6F
:104CB00009476383E70AC8404C00EF303023D840EF
:104CC000B7170140938607C005456302D70209451F
:104CD000630FF700938707400D45630AF700B72776
:104CE00001409387078001456313F70011459375D1
:104CF000F40FEF30F02C0808EF30700441650E041B
:104D0000130585402295504137E700E093060005E2
:104D1000B307C7002380D7409357560093870704F3
:104D200085468A07BA97B396C60094C39387C18D08
:104D30001A2194434A85558F98C3EFC07FEA0145F5
:104D400091BF930780023EC6A1473ECCADB7930703
:104D500080043EC63ACC85B791473EC6C147F5B7F9
:104D60006955E39909F28844EFF0FFD3AA84BD475F
:104D70001945E3E197F2EFC0FFE541678E041307A1
:104D8000874026971386C18D16230C4293C7F6FFE2
:104D9000ED8F1CC2138606FE420641829305001E5B
:104DA00063E2C50293F7073EC9FB58439357570088
:104DB000938707063314E4008A0737E700E0BA97C1
:104DC00080C3A5BF938606C0C2062166C1821306B2
:104DD00006C0E36CD6FCC166938606C0F58FE9B7C2
:104DE000EFB22FDC13F5F50FEFF0DFC9AA8701450D
:104DF00089C78E27C843EF30701B6FB0CFDCEFB28E
:104E00004FDA411113F5F50F32C6EFF0BFC711C5E8
:104E10000E2532464841EF30101A41016FB0AFDA2B
:104E2000EFB22FD8EFF03FC8B1473305F502B7070F
:104E300000209387070A3E955C4199C308458297F5
:104E40006FB06FD873110134EFB09FC70545EF30D5
:104E5000A07519C50545EFF0BFFC0545EF30A076FC
:104E6000EFB0FFC8731101347300203073110134A7
:104E7000EFB01FC50945EF30207319C50945EFF0A4
:104E80003FFA0945EF302074EFB07FC6731101344B
:104E90007300203073110134EFB09FC21145EF3021
:104EA000A07019C51145EFF0BFF71145EF30A071A3
:104EB000EFB0FFC37311013473002030731101345C
:104EC000EFB01FC02145EF30206E19C52145EFF02E
:104ED0003FF52145EF30206FEFB07FC173110134F2
:104EE0007300203073110134EFB09FBD4145EF30A6
:104EF000A06B19C54145EFF0BFF24145EF30A06C02
:104F0000EFB0FFBE73110134730020307311013410
:104F1000EFB01FBB13050002EF3000691DCD130574
:104F20000002EFF0FFEF13050004EFF07FEF130531
:104F30000008EFF0FFEE13050010EFF07FEE130511
:104F40000020EFF0FFED1305003EEF30C067EFB03B
:104F50001FBA731101347300203013050004EF30C1
:104F6000A06455FD13050008EF3000644DF91305EA
:104F70000010EF30606345F513050020EF30C0628C
:104F800059FDF1B732858280EFB2AFC124452A8442
:104F9000930550529C40C843EF30905509CD85454C
:104FA0002285EFF0DF869C4093055052C843EF30D6
:104FB000F0576FB04FC19C4093054042C843EF305B
:104FC000305365D99C4085452285DC439A23DE23F6
:104FD0001C548297F9BFEFB2CFBC20459305000265
:104FE0001C40C843EF30305001C91C40DC43CA2389
:104FF0001375F50F6FB02FBD7D55EDBFEFB26FBAD2
:1050000024452E849C4093050004C843EF30B04DE6
:1050100075D99C4042044180DC430545C2A36FB072
:105020008FBAEFB20FB841473C45638BE504454763
:105030006395E504984305461447484393D75600C3
:10504000938707063316D6008A07B7E600E0B697BF
:10505000144390C3B71701009387C7840146638A3E
:10506000F600B71701009387478593055052639464
:10507000F60093054042EF30904201456FB0AFB467
:10508000984305461447484393D75600938707042F
:105090003316D6008A07B7E600E0B69790C3B71775
:1050A000010014439387C784054655BFEFB2CFADC7
:1050B000370502401305C506EF30E0471304000230
:1050C000098C83D7018E42044180638087029384D8
:1050D000018E9385C14363FC87003306F440BE957F
:1050E0001385C145EF00501682A06FB02FAD130697
:1050F00000021D8EBE951385C145EF00F0146DD4DE
:1051000022869385C143E9BFEFB2AFA93971244527
:105110002E89328481451306C002480836C6EFB096
:105120004FABB24685476397F60685450545EF3098
:10513000300D2285EF30A0249C40D8434ACC02CECB
:10514000930747003ECAB74700409387074063195B
:10515000F704930700023ED0930700083ED44C08A2
:105160009307000222853EDA02D202D602D802DC80
:1051700002DEEF30803722858545EF30803A9C4053
:10518000054693050004C843EF30D0340145216142
:105190006FB06FA38947E39EF6F88545094541BF87
:1051A000B7570040938707C0E318F7FA9307000446
:1051B0005DB7EFB26F9D9C412045A14641115CC097
:1051C000B1477EA4DC4123180400AA8413F7F7003A
:1051D0006301D702A546631ED70005671AA413D73B
:1051E00047000D8B01C785466308D70023150400CF
:1051F00031A023140400E5B709673AA499838D8B85
:1052000005476389E70081C709476384E7242316BC
:10521000040021A0930700605EA41C40D843B74758
:10522000014093870780631EF704116585451105CA
:1052300002C202C402C6EF30807E930700203719F5
:1052400001407C828D49E1474C00130509803EC630
:105250004EC4EF30A049930700407C824C00914738
:10526000130509803EC64EC4EF3040481C409305EC
:105270004400C843EF3050181C408545C843EF3008
:10528000B0201C40D843B747004093870740631ABB
:10529000F70685453705020002C202C402C6EF3098
:1052A000E07985451145EF30807791473719014006
:1052B0007C828D49E1474C00130509803EC64EC4EF
:1052C000EF30C042A1477C824C0091471305098012
:1052D0003EC64EC4EF308041370602408546130675
:1052E000C6069385C1432685EFF01FE21C40930557
:1052F0004400C843EF3050101C408545C843EF3090
:10530000B0181C40D843B7570040938707806313F9
:10531000F70685453705040002C202C402C6EF3015
:10532000E07185452145EF30806F930700403719C4
:1053300001407C828D49E1474C00130509C03EC6FF
:105340004EC4EF30A03A8567938707807C824C007B
:105350009147130509C03EC64EC4EF3020391C40AA
:1053600093054400C843EF3030091C408545C843CD
:10537000EF3090111C40D843B7570040938707C0C7
:105380006310F70685453705080002C202C402C64D
:10539000EF30C06A85454145EF3060688567938787
:1053A00007807C828D473EC44C00914737150140F1
:1053B0003EC6EF30A0333706024089461306064347
:1053C0009385414F2685EFF03FD41C409305440060
:1053D000C843EF3070021C408545C843EF30D00A07
:1053E0001C40D843B75700406311F7068545370581
:1053F000100002C202C402C6EF30406485451305A6
:105400000003EF30C06185677C828D44E1474C002A
:10541000371501403EC626C4EF30402D9147371561
:1054200001407C824C009147130505403EC626C4CE
:10543000EF30C02B1C4093054400C843EF30C07BC5
:105440001C408545C843EF303004014541016FA041
:10545000FFF693070040C9B373110134EFB04FE674
:105460001385015AEFF05FB2EFB06FE873110134AA
:105470007300203073110134EFB08FE41385416164
:10548000EFF09FB0EFB0AFE673110134730020303E
:1054900073110134EFB0CFE213858168EFF0DFAE16
:1054A000EFB0EFE473110134730020307311013455
:1054B000EFB00FE11385C16FEFF01FADEFB02FE339
:1054C000731101347300203073110134EFB04FDFDA
:1054D00013850177EFF05FABEFB06FE1731101342B
:1054E00073002030EFA2FFE8B70D0020C569716A94
:1054F000B70A0400371B0100B71B01001384C15811
:10550000938D0D1681441389C1589389C985130A57
:105510000A20A10A130BCB84938B4B85930740077A
:10552000B387F40223224407370700C02320B401C5
:105530002320340793870706CA979447758F3367EC
:10554000570198C783A70D006399670113060008E8
:10555000938541471385C145FD2E1C409C436399AB
:105560007701130600049385C15413854153E52642
:105570001C40A286130544018C4313063010850499
:10558000EFF04FA39547B10D13044407E398F4F8E7
:105590006FA0FFE1EFA2FFE05841B7160100B71579
:1055A00001009386068B05469385858C1D45EFC0CB
:1055B000BFA96FA05FE1EFA23FDD2A84AE842E87F2
:1055C0001306C002830607001C48A9E28306F7FF02
:1055D0001307C0026384E60085071CC80848FD570E
:1055E0001DC10A05EFB0FF9CAA89ED5709CD1048EF
:1055F000814501490A06EFB08FD41C48636EF9005B
:105600002326340181473E856FA05FDB6394C6008B
:1056100085071CC805077DB72685EF60B023931763
:105620002900CE9788C39305C0022685EF70A01984
:10563000AA8419C1930415000509C1B7EFA2DFD4EC
:1056400083C7218E411195E3B7160100B7150100FC
:105650009386868805469385858C0D45EFC0DF9E31
:105660000144228541016FA07FD5AA841305C002A1
:105670002E89B68932C6EFB0DF932A847DD13246B7
:105680002310050044C123242501232605002328D7
:105690000500232A050009CAB285EFF0DFF109C52C
:1056A0002285EFB01FA66DBF232C3401232E3401B9
:1056B000EFA0BFDCB75700009387475908D05CD0F4
:1056C0002685232404028145EFF0CFA093351900ED
:1056D0002685EFF0CFA171B7EFA2BFCC2A84FD558C
:1056E0001385017DEFB0AFA51C3081CB1385017D03
:1056F000EFB0EFB17D556FA01FCD5C44E5DB1C48DA
:10570000F5D71C4C232A04005CCCEFA01FD708D08F
:10571000930684029387418E984301EF94C3854793
:10572000232404021CB01385017DEFB04FAE014568
:10573000D9B7BA87D5B7EFA2DFC62A84FD5513853E
:10574000017DEFB0CF9F1C301385017D95C3268569
:10575000930684029387418E984309C7639FE600AE
:10576000185498C323240402A30004001385017D68
:10577000EFB0EFA901456FA01FC5BA87F1BFEFA237
:10578000BFC0AE892A84FD551385017D3289EFB0F3
:105790000F9B63890902484409C5EFB09F962326F1
:1057A000040023280400CE852285EFF0DFE019C92C
:1057B0002285EFF05FF81385017DEFB04FA57D5591
:1057C0006FA0DFBF232C2401232A0400232E2401F1
:1057D000EFA0BFCA08D01385017DEFB04FA30145EC
:1057E000C5B7EFA21FBCEFF09FF96FA0DFBDEFA21E
:1057F0005FBB0C454841EFF08F8F6FA0DFBCEFA27D
:105800005FBA0C45484193B51500EFF04F8E6FA07D
:105810009FBBEFA27FB7FD551385017D370A00803E
:10582000EFB0EF91134AEAFF03A4418E9384418EB7
:1058300019E41385017DEFB08F9D6FA03FB88327DA
:1058400044FF930984FD81EF4E85EFF0DFEE83275F
:10585000C4FF268499C34E8582970040D1BFEFA034
:10586000DFC1832784FF1D8DE369AAFE8327C4FE61
:10587000032784FE63FAE704032744FE9396270078
:105880003697184309E785072326F4FEC9BF858BA1
:105890004E8585CBEFF0BFF6EFA03FBE0327C4FED9
:1058A000832744FEAA890A07BA978843EFA0DFBF7F
:1058B0008327C4FE4E95232CA4FE85072326F4FEE1
:1058C00069BFEFF0DFF2C9BF832744FF232604FE40
:1058D000E355F0F8FD17232AF4FE41B7EFA27FACA1
:1058E000EFF03FF31545EFB07FEADDBFEFA27FABEE
:1058F0001384218E1C2081EFB7150100014693858A
:10590000458D1385017DEFB0EF8085471CA06FA00A
:105910009FABEFA21FA9EFF07FFD371400203717D0
:10592000002037660000B7150100954871489307BD
:1059300000401307C74581461306C68D9385058829
:105940001305C43CEFB07FCA1305C43CEFB0BFE9F8
:1059500001456FA05FA7AA87014585C399CD11CEE8
:1059600023A80700D0C38CC31387C7002F200708C4
:10597000A1072FA00708054582808280814705C1C5
:105980001841814709CF544199CA58450845B30782
:10599000E5406365A700B307D500998FFD173E85E5
:1059A000828011E50145828001456FA03FA1EFA2F1
:1059B000BF9D1C41AA84EDDB5C41FDD7F5D56DD6BA
:1059C0003A89B68A32842E8AEFF05FFB71DD637606
:1059D000850013791900E31909FC637385002A8493
:1059E00003ABC4000F00F00F03A944003309694161
:1059F00063732401228988404A86D2855A95B30967
:105A00002441EF608068639A0902B3092B01DC40EE
:105A100063E3F90081499387C4000F00500F2FA062
:105A200037099C4889C72286854526858297054582
:105A3000E38D0AF623A08A008DBF88404E86B30509
:105A40002A01EF608064E1B7EFA2BF9541110147E1
:105A5000740002C6EFF0FFF409C5324541016FA0A2
:105A60009F960145E5BF814701CD1841814709CB8C
:105A7000544199C658451C456366F700B307F74083
:105A80003E8582803697DDBF11E501458280014564
:105A90006FA0DF92EFA25F8F1C41AA84EDDB5C4117
:105AA000FDD7F5D56DD63A89B68A32842E8AEFF0C5
:105AB0009FFB71DD6376850013791900E31909FCFA
:105AC000637385002A8403AB84000F00F00F03A9E1
:105AD0004400330969416373240122898C404A865A
